Component: ARM Compiler 5.06 update 6 (build 750) Tool: armlink [4d35ed]

==============================================================================

Section Cross References

    main.o(i.main) refers to at32f413_misc.o(i.nvic_priority_group_config) for nvic_priority_group_config
    main.o(i.main) refers to at32f413_clock.o(i.system_clock_config) for system_clock_config
    main.o(i.main) refers to delay.o(i.delay_init) for delay_init
    main.o(i.main) refers to app.o(i.Peripherals_Init) for Peripherals_Init
    system_at32f413.o(i.system_core_clock_update) refers to at32f413_crm.o(i.crm_sysclk_switch_status_get) for crm_sysclk_switch_status_get
    system_at32f413.o(i.system_core_clock_update) refers to system_at32f413.o(.data) for system_core_clock
    system_at32f413.o(i.system_core_clock_update) refers to system_at32f413.o(.constdata) for sys_ahb_div_table
    at32f413_clock.o(i.system_clock_config) refers to at32f413_crm.o(i.crm_reset) for crm_reset
    at32f413_clock.o(i.system_clock_config) refers to at32f413_crm.o(i.crm_clock_source_enable) for crm_clock_source_enable
    at32f413_clock.o(i.system_clock_config) refers to at32f413_crm.o(i.crm_hext_stable_wait) for crm_hext_stable_wait
    at32f413_clock.o(i.system_clock_config) refers to at32f413_crm.o(i.crm_pll_config) for crm_pll_config
    at32f413_clock.o(i.system_clock_config) refers to at32f413_crm.o(i.crm_flag_get) for crm_flag_get
    at32f413_clock.o(i.system_clock_config) refers to at32f413_crm.o(i.crm_ahb_div_set) for crm_ahb_div_set
    at32f413_clock.o(i.system_clock_config) refers to at32f413_crm.o(i.crm_apb2_div_set) for crm_apb2_div_set
    at32f413_clock.o(i.system_clock_config) refers to at32f413_crm.o(i.crm_apb1_div_set) for crm_apb1_div_set
    at32f413_clock.o(i.system_clock_config) refers to at32f413_crm.o(i.crm_auto_step_mode_enable) for crm_auto_step_mode_enable
    at32f413_clock.o(i.system_clock_config) refers to at32f413_crm.o(i.crm_sysclk_switch) for crm_sysclk_switch
    at32f413_clock.o(i.system_clock_config) refers to at32f413_crm.o(i.crm_sysclk_switch_status_get) for crm_sysclk_switch_status_get
==============================================================================

Removing Unused input sections from the image.

    Removing main.o(.rev16_text), (4 bytes).
    Removing main.o(.revsh_text), (4 bytes).
    Removing main.o(.rrx_text), (6 bytes).
    Removing system_at32f413.o(.rev16_text), (4 bytes).
    Removing system_at32f413.o(.revsh_text), (4 bytes).
    Removing system_at32f413.o(.rrx_text), (6 bytes).
    Removing at32f413_clock.o(.rev16_text), (4 bytes).
    Removing at32f413_clock.o(.revsh_text), (4 bytes).
    Removing at32f413_clock.o(.rrx_text), (6 bytes).
    Removing at32f413_int.o(.rev16_text), (4 bytes).
    Removing at32f413_int.o(.revsh_text), (4 bytes).
    Removing at32f413_int.o(.rrx_text), (6 bytes).
    Removing at32f413_gpio.o(.rev16_text), (4 bytes).
    Removing at32f413_gpio.o(.revsh_text), (4 bytes).
    Removing at32f413_gpio.o(.rrx_text), (6 bytes).
    Removing at32f413_gpio.o(i.gpio_bits_write), (10 bytes).
    Removing at32f413_gpio.o(i.gpio_event_output_config), (28 bytes).
    Removing at32f413_gpio.o(i.gpio_event_output_enable), (20 bytes).
==============================================================================

Image Symbol Table

    Local Symbols

    Symbol Name                              Value     Ov Type        Size  Object(Section)

    ../clib/angel/boardlib.s                 0x00000000   Number         0  boardinit3.o ABSOLUTE
    ../clib/angel/boardlib.s                 0x00000000   Number         0  boardshut.o ABSOLUTE
    ../clib/angel/boardlib.s                 0x00000000   Number         0  boardinit1.o ABSOLUTE
    ../clib/angel/boardlib.s                 0x00000000   Number         0  boardinit2.o ABSOLUTE
    ../clib/angel/handlers.s                 0x00000000   Number         0  __scatter_zi.o ABSOLUTE
    ../clib/angel/handlers.s                 0x00000000   Number         0  __scatter_copy.o ABSOLUTE
    ../clib/angel/kernel.s                   0x00000000   Number         0  __rtentry.o ABSOLUTE
    ../clib/angel/kernel.s                   0x00000000   Number         0  rtexit.o ABSOLUTE
    ../clib/angel/kernel.s                   0x00000000   Number         0  rtexit2.o ABSOLUTE
    ../clib/angel/kernel.s                   0x00000000   Number         0  __rtentry2.o ABSOLUTE
    ../clib/angel/kernel.s                   0x00000000   Number         0  __rtentry4.o ABSOLUTE
    ../clib/angel/rt.s                       0x00000000   Number         0  rt_raise.o ABSOLUTE
    ../clib/angel/rt.s                       0x00000000   Number         0  rt_errno_addr.o ABSOLUTE
    ../clib/angel/rt.s                       0x00000000   Number         0  rt_errno_addr_intlibspace.o ABSOLUTE
    ../clib/angel/scatter.s                  0x00000000   Number         0  __scatter.o ABSOLUTE
    ../clib/angel/startup.s                  0x00000000   Number         0  __main.o ABSOLUTE
    ../clib/angel/sys.s                      0x00000000   Number         0  indicate_semi.o ABSOLUTE
    ../clib/angel/sys.s                      0x00000000   Number         0  use_no_semi.o ABSOLUTE
    ../clib/angel/sys.s                      0x00000000   Number         0  libspace.o ABSOLUTE
    ../clib/angel/sys.s                      0x00000000   Number         0  sys_stackheap_outer.o ABSOLUTE
    ../clib/angel/sysapp.c                   0x00000000   Number         0  sys_wrch.o ABSOLUTE
    ../clib/angel/sysapp.c                   0x00000000   Number         0  sys_command.o ABSOLUTE
    ../clib/angel/sysapp.c                   0x00000000   Number         0  sys_exit.o ABSOLUTE
    ../clib/armsys.c                         0x00000000   Number         0  argv_veneer.o ABSOLUTE
    ../clib/armsys.c                         0x00000000   Number         0  no_argv.o ABSOLUTE
    ../clib/armsys.c                         0x00000000   Number         0  _get_argv_nomalloc.o ABSOLUTE
    ../clib/armsys.c                         0x00000000   Number         0  argv_veneer.o ABSOLUTE
    ../clib/fenv.c                           0x00000000   Number         0  _rserrno.o ABSOLUTE
    ../clib/heapalloc.c                      0x00000000   Number         0  hrguard.o ABSOLUTE
    ../clib/heapaux.c                        0x00000000   Number         0  heapauxi.o ABSOLUTE
    ../clib/libinit.s                        0x00000000   Number         0  libshutdown.o ABSOLUTE
    ../clib/libinit.s                        0x00000000   Number         0  libinit2.o ABSOLUTE
    ../clib/libinit.s                        0x00000000   Number         0  libinit.o ABSOLUTE
    ../clib/libinit.s                        0x00000000   Number         0  libshutdown2.o ABSOLUTE
    ../clib/memcpset.s                       0x00000000   Number         0  rt_memcpy_w.o ABSOLUTE
    ../clib/memcpset.s                       0x00000000   Number         0  rt_memclr_w.o ABSOLUTE
    ../clib/memcpset.s                       0x00000000   Number         0  rt_memclr.o ABSOLUTE
    ../clib/memcpset.s                       0x00000000   Number         0  rt_memcpy_v6.o ABSOLUTE
    ../clib/signal.c                         0x00000000   Number         0  defsig_other.o ABSOLUTE
    ../clib/signal.c                         0x00000000   Number         0  defsig_fpe_inner.o ABSOLUTE
    ../clib/signal.c                         0x00000000   Number         0  defsig_stak_inner.o ABSOLUTE
    ../clib/signal.c                         0x00000000   Number         0  defsig_rtmem_formal.o ABSOLUTE
    ../clib/signal.c                         0x00000000   Number         0  defsig_abrt_inner.o ABSOLUTE
    ../clib/signal.c                         0x00000000   Number         0  defsig_exit.o ABSOLUTE
    ../clib/signal.c                         0x00000000   Number         0  defsig_general.o ABSOLUTE
    ../clib/signal.c                         0x00000000   Number         0  __raise.o ABSOLUTE
    ../clib/signal.c                         0x00000000   Number         0  defsig_segv_inner.o ABSOLUTE
    ../clib/signal.c                         0x00000000   Number         0  defsig_cppl_inner.o ABSOLUTE
    ../clib/signal.c                         0x00000000   Number         0  defsig_rtmem_inner.o ABSOLUTE
    ../clib/signal.c                         0x00000000   Number         0  defsig_pvfn_inner.o ABSOLUTE
    ../clib/signal.c                         0x00000000   Number         0  defsig_rtred_inner.o ABSOLUTE
    ../clib/signal.c                         0x00000000   Number         0  defsig_rtmem_outer.o ABSOLUTE
    ../clib/signal.s                         0x00000000   Number         0  defsig.o ABSOLUTE
    ../clib/stdlib.c                         0x00000000   Number         0  exit.o ABSOLUTE
    ../fplib/dcmpi.s                         0x00000000   Number         0  dcmpi.o ABSOLUTE
    ../fplib/dleqf.s                         0x00000000   Number         0  dleqf.o ABSOLUTE
    ../fplib/dnaninf.s                       0x00000000   Number         0  dnaninf.o ABSOLUTE
    ../fplib/dretinf.s                       0x00000000   Number         0  dretinf.o ABSOLUTE
    ../fplib/drleqf.s                        0x00000000   Number         0  drleqf.o ABSOLUTE
    ../fplib/f2d.s                           0x00000000   Number         0  f2d.o ABSOLUTE
    ../fplib/fnaninf.s                       0x00000000   Number         0  fnaninf.o ABSOLUTE
    ../fplib/fpinit.s                        0x00000000   Number         0  fpinit.o ABSOLUTE
    ../fplib/usenofp.s                       0x00000000   Number         0  usenofp.o ABSOLUTE
    ../mathlib/atan2f.c                      0x00000000   Number         0  atan2f_x.o ABSOLUTE
    ../mathlib/atan2f.c                      0x00000000   Number         0  atan2f.o ABSOLUTE
    ../mathlib/cosf.c                        0x00000000   Number         0  cosf_x.o ABSOLUTE
    ../mathlib/cosf.c                        0x00000000   Number         0  cosf.o ABSOLUTE
    ../mathlib/fabs.c                        0x00000000   Number         0  fabs.o ABSOLUTE
    ../mathlib/fpclassifyf.c                 0x00000000   Number         0  fpclassifyf.o ABSOLUTE
    ../mathlib/funder.c                      0x00000000   Number         0  funder.o ABSOLUTE
    ../mathlib/rredf.c                       0x00000000   Number         0  rredf.o ABSOLUTE
    ../mathlib/sinf.c                        0x00000000   Number         0  sinf_x.o ABSOLUTE
    ../mathlib/sinf.c                        0x00000000   Number         0  sinf.o ABSOLUTE
    ..\AT32F413_StdPeriph_Driver\src\at32f413_adc.c 0x00000000   Number         0  at32f413_adc.o ABSOLUTE
    ..\AT32F413_StdPeriph_Driver\src\at32f413_crm.c 0x00000000   Number         0  at32f413_crm.o ABSOLUTE
    ..\AT32F413_StdPeriph_Driver\src\at32f413_dma.c 0x00000000   Number         0  at32f413_dma.o ABSOLUTE
    ..\AT32F413_StdPeriph_Driver\src\at32f413_flash.c 0x00000000   Number         0  at32f413_flash.o ABSOLUTE
    ..\AT32F413_StdPeriph_Driver\src\at32f413_gpio.c 0x00000000   Number         0  at32f413_gpio.o ABSOLUTE
    ..\AT32F413_StdPeriph_Driver\src\at32f413_misc.c 0x00000000   Number         0  at32f413_misc.o ABSOLUTE
    ..\AT32F413_StdPeriph_Driver\src\at32f413_spi.c 0x00000000   Number         0  at32f413_spi.o ABSOLUTE
    ..\AT32F413_StdPeriph_Driver\src\at32f413_tmr.c 0x00000000   Number         0  at32f413_tmr.o ABSOLUTE
    ..\AT32F413_StdPeriph_Driver\src\at32f413_usart.c 0x00000000   Number         0  at32f413_usart.o ABSOLUTE
    ..\CORE\startup_at32f413.s               0x00000000   Number         0  startup_at32f413.o ABSOLUTE
    ..\CORE\system_at32f413.c                0x00000000   Number         0  system_at32f413.o ABSOLUTE
    ..\UserFile\AHRS.c                       0x00000000   Number         0  ahrs.o ABSOLUTE
    ..\UserFile\Calibration.c                0x00000000   Number         0  calibration.o ABSOLUTE
    ..\UserFile\Control.c                    0x00000000   Number         0  control.o ABSOLUTE
    ..\UserFile\Debug.c                      0x00000000   Number         0  debug.o ABSOLUTE
    ..\UserFile\Encoder.c                    0x00000000   Number         0  encoder.o ABSOLUTE
    ..\UserFile\Gpio_Config.c                0x00000000   Number         0  gpio_config.o ABSOLUTE
    ..\UserFile\MPU6500.c                    0x00000000   Number         0  mpu6500.o ABSOLUTE
    ..\UserFile\RcData.c                     0x00000000   Number         0  rcdata.o ABSOLUTE
    ..\UserFile\WS2812.c                     0x00000000   Number         0  ws2812.o ABSOLUTE
    ..\UserFile\adc.c                        0x00000000   Number         0  adc.o ABSOLUTE
    ..\UserFile\app.c                        0x00000000   Number         0  app.o ABSOLUTE
    ..\UserFile\delay.c                      0x00000000   Number         0  delay.o ABSOLUTE
    ..\UserFile\flash.c                      0x00000000   Number         0  flash.o ABSOLUTE
    ..\UserFile\key.c                        0x00000000   Number         0  key.o ABSOLUTE
    ..\UserFile\led.c                        0x00000000   Number         0  led.o ABSOLUTE
    ..\UserFile\timer.c                      0x00000000   Number         0  timer.o ABSOLUTE
    ..\UserFile\usart.c                      0x00000000   Number         0  usart.o ABSOLUTE
    ..\\AT32F413_StdPeriph_Driver\\src\\at32f413_adc.c 0x00000000   Number         0  at32f413_adc.o ABSOLUTE
    ..\\AT32F413_StdPeriph_Driver\\src\\at32f413_crm.c 0x00000000   Number         0  at32f413_crm.o ABSOLUTE
    ..\\AT32F413_StdPeriph_Driver\\src\\at32f413_dma.c 0x00000000   Number         0  at32f413_dma.o ABSOLUTE
    ..\\AT32F413_StdPeriph_Driver\\src\\at32f413_flash.c 0x00000000   Number         0  at32f413_flash.o ABSOLUTE
    ..\\AT32F413_StdPeriph_Driver\\src\\at32f413_gpio.c 0x00000000   Number         0  at32f413_gpio.o ABSOLUTE
    ..\\AT32F413_StdPeriph_Driver\\src\\at32f413_misc.c 0x00000000   Number         0  at32f413_misc.o ABSOLUTE
    ..\\AT32F413_StdPeriph_Driver\\src\\at32f413_spi.c 0x00000000   Number         0  at32f413_spi.o ABSOLUTE
    ..\\AT32F413_StdPeriph_Driver\\src\\at32f413_tmr.c 0x00000000   Number         0  at32f413_tmr.o ABSOLUTE
    ..\\AT32F413_StdPeriph_Driver\\src\\at32f413_usart.c 0x00000000   Number         0  at32f413_usart.o ABSOLUTE
    ..\\CORE\\system_at32f413.c              0x00000000   Number         0  system_at32f413.o ABSOLUTE
    ..\\UserFile\\AHRS.c                     0x00000000   Number         0  ahrs.o ABSOLUTE
    ..\\UserFile\\Calibration.c              0x00000000   Number         0  calibration.o ABSOLUTE
    ..\\UserFile\\Control.c                  0x00000000   Number         0  control.o ABSOLUTE
    ..\\UserFile\\Debug.c                    0x00000000   Number         0  debug.o ABSOLUTE
    ..\\UserFile\\Encoder.c                  0x00000000   Number         0  encoder.o ABSOLUTE
    ..\\UserFile\\Gpio_Config.c              0x00000000   Number         0  gpio_config.o ABSOLUTE
    ..\\UserFile\\MPU6500.c                  0x00000000   Number         0  mpu6500.o ABSOLUTE
    ..\\UserFile\\RcData.c                   0x00000000   Number         0  rcdata.o ABSOLUTE
    ..\\UserFile\\WS2812.c                   0x00000000   Number         0  ws2812.o ABSOLUTE
    ..\\UserFile\\adc.c                      0x00000000   Number         0  adc.o ABSOLUTE
    ..\\UserFile\\app.c                      0x00000000   Number         0  app.o ABSOLUTE
    ..\\UserFile\\delay.c                    0x00000000   Number         0  delay.o ABSOLUTE
    ..\\UserFile\\flash.c                    0x00000000   Number         0  flash.o ABSOLUTE
    ..\\UserFile\\key.c                      0x00000000   Number         0  key.o ABSOLUTE
    ..\\UserFile\\led.c                      0x00000000   Number         0  led.o ABSOLUTE
    ..\\UserFile\\timer.c                    0x00000000   Number         0  timer.o ABSOLUTE
    ..\\UserFile\\usart.c                    0x00000000   Number         0  usart.o ABSOLUTE
    AT32F413RC_FOC_LIB.c                     0x00000000   Number         0  at32f413rc_foc_lib.o ABSOLUTE
    AT32F413RC_FOC_LIB.c                     0x00000000   Number         0  at32f413rc_foc_lib.o ABSOLUTE
    at32f413_clock.c                         0x00000000   Number         0  at32f413_clock.o ABSOLUTE
    at32f413_clock.c                         0x00000000   Number         0  at32f413_clock.o ABSOLUTE
    at32f413_int.c                           0x00000000   Number         0  at32f413_int.o ABSOLUTE
    at32f413_int.c                           0x00000000   Number         0  at32f413_int.o ABSOLUTE
    dc.s                                     0x00000000   Number         0  dc.o ABSOLUTE
    main.c                                   0x00000000   Number         0  main.o ABSOLUTE
    main.c                                   0x00000000   Number         0  main.o ABSOLUTE
    RESET                                    0x08000000   Section      368  startup_at32f413.o(RESET)
    !!!main                                  0x08000170   Section        8  __main.o(!!!main)
    !!!scatter                               0x08000178   Section       52  __scatter.o(!!!scatter)
    !!handler_copy                           0x080001ac   Section       26  __scatter_copy.o(!!handler_copy)
    !!handler_zi                             0x080001c8   Section       28  __scatter_zi.o(!!handler_zi)
    .ARM.Collect$$libinit$$00000000          0x080001e4   Section        2  libinit.o(.ARM.Collect$$libinit$$00000000)
    .ARM.Collect$$libinit$$00000001          0x080001e6   Section        4  libinit2.o(.ARM.Collect$$libinit$$00000001)
    .ARM.Collect$$libinit$$00000004          0x080001ea   Section        0  libinit2.o(.ARM.Collect$$libinit$$00000004)
    .ARM.Collect$$libinit$$0000000A          0x080001ea   Section        0  libinit2.o(.ARM.Collect$$libinit$$0000000A)
    .ARM.Collect$$libinit$$0000000C          0x080001ea   Section        0  libinit2.o(.ARM.Collect$$libinit$$0000000C)
    .ARM.Collect$$libinit$$0000000E          0x080001ea   Section        0  libinit2.o(.ARM.Collect$$libinit$$0000000E)
    .ARM.Collect$$libinit$$00000011          0x080001ea   Section        0  libinit2.o(.ARM.Collect$$libinit$$00000011)
    .ARM.Collect$$libinit$$00000013          0x080001ea   Section        0  libinit2.o(.ARM.Collect$$libinit$$00000013)
    .ARM.Collect$$libinit$$00000015          0x080001ea   Section        0  libinit2.o(.ARM.Collect$$libinit$$00000015)
    .ARM.Collect$$libinit$$00000017          0x080001ea   Section        0  libinit2.o(.ARM.Collect$$libinit$$00000017)
    .ARM.Collect$$libinit$$00000019          0x080001ea   Section        0  libinit2.o(.ARM.Collect$$libinit$$00000019)
    .ARM.Collect$$libinit$$0000001B          0x080001ea   Section        0  libinit2.o(.ARM.Collect$$libinit$$0000001B)
    .ARM.Collect$$libinit$$0000001D          0x080001ea   Section        0  libinit2.o(.ARM.Collect$$libinit$$0000001D)
    .ARM.Collect$$libinit$$0000001F          0x080001ea   Section        0  libinit2.o(.ARM.Collect$$libinit$$0000001F)
    .ARM.Collect$$libinit$$00000021          0x080001ea   Section        0  libinit2.o(.ARM.Collect$$libinit$$00000021)
    .ARM.Collect$$libinit$$00000023          0x080001ea   Section        0  libinit2.o(.ARM.Collect$$libinit$$00000023)
    .ARM.Collect$$libinit$$00000025          0x080001ea   Section        0  libinit2.o(.ARM.Collect$$libinit$$00000025)
    .ARM.Collect$$libinit$$0000002C          0x080001ea   Section        0  libinit2.o(.ARM.Collect$$libinit$$0000002C)
    .ARM.Collect$$libinit$$0000002E          0x080001ea   Section        0  libinit2.o(.ARM.Collect$$libinit$$0000002E)
    .ARM.Collect$$libinit$$00000030          0x080001ea   Section        0  libinit2.o(.ARM.Collect$$libinit$$00000030)
    .ARM.Collect$$libinit$$00000032          0x080001ea   Section        0  libinit2.o(.ARM.Collect$$libinit$$00000032)
    .ARM.Collect$$libinit$$00000033          0x080001ea   Section        2  libinit2.o(.ARM.Collect$$libinit$$00000033)
    .ARM.Collect$$libshutdown$$00000000      0x080001ec   Section        2  libshutdown.o(.ARM.Collect$$libshutdown$$00000000)
    .ARM.Collect$$libshutdown$$00000002      0x080001ee   Section        0  libshutdown2.o(.ARM.Collect$$libshutdown$$00000002)
    .ARM.Collect$$libshutdown$$00000004      0x080001ee   Section        0  libshutdown2.o(.ARM.Collect$$libshutdown$$00000004)
    .ARM.Collect$$libshutdown$$00000007      0x080001ee   Section        0  libshutdown2.o(.ARM.Collect$$libshutdown$$00000007)
    .ARM.Collect$$libshutdown$$0000000A      0x080001ee   Section        0  libshutdown2.o(.ARM.Collect$$libshutdown$$0000000A)
    .ARM.Collect$$libshutdown$$0000000C      0x080001ee   Section        0  libshutdown2.o(.ARM.Collect$$libshutdown$$0000000C)
    .ARM.Collect$$libshutdown$$0000000F      0x080001ee   Section        0  libshutdown2.o(.ARM.Collect$$libshutdown$$0000000F)
    .ARM.Collect$$libshutdown$$00000010      0x080001ee   Section        2  libshutdown2.o(.ARM.Collect$$libshutdown$$00000010)
    .ARM.Collect$$rtentry$$00000000          0x080001f0   Section        0  __rtentry.o(.ARM.Collect$$rtentry$$00000000)
    .ARM.Collect$$rtentry$$00000002          0x080001f0   Section        0  __rtentry2.o(.ARM.Collect$$rtentry$$00000002)
    .ARM.Collect$$rtentry$$00000004          0x080001f0   Section        6  __rtentry4.o(.ARM.Collect$$rtentry$$00000004)
    .ARM.Collect$$rtentry$$00000009          0x080001f6   Section        0  __rtentry2.o(.ARM.Collect$$rtentry$$00000009)
    .ARM.Collect$$rtentry$$0000000A          0x080001f6   Section        4  __rtentry2.o(.ARM.Collect$$rtentry$$0000000A)
    .ARM.Collect$$rtentry$$0000000C          0x080001fa   Section        0  __rtentry2.o(.ARM.Collect$$rtentry$$0000000C)
    .ARM.Collect$$rtentry$$0000000D          0x080001fa   Section        8  __rtentry2.o(.ARM.Collect$$rtentry$$0000000D)
    .ARM.Collect$$rtexit$$00000000           0x08000202   Section        2  rtexit.o(.ARM.Collect$$rtexit$$00000000)
    .ARM.Collect$$rtexit$$00000002           0x08000204   Section        0  rtexit2.o(.ARM.Collect$$rtexit$$00000002)
    .ARM.Collect$$rtexit$$00000003           0x08000204   Section        4  rtexit2.o(.ARM.Collect$$rtexit$$00000003)
    .ARM.Collect$$rtexit$$00000004           0x08000208   Section        6  rtexit2.o(.ARM.Collect$$rtexit$$00000004)
    .text                                    0x08000210   Section       64  startup_at32f413.o(.text)
    $v0                                      0x08000210   Number         0  startup_at32f413.o(.text)
    .text                                    0x08000250   Section      138  rt_memcpy_v6.o(.text)
    .text                                    0x080002da   Section       68  rt_memclr.o(.text)
    .text                                    0x0800031e   Section       78  rt_memclr_w.o(.text)
    .text                                    0x0800036c   Section        0  heapauxi.o(.text)
    .text                                    0x08000372   Section        0  _rserrno.o(.text)
    .text                                    0x08000388   Section      100  rt_memcpy_w.o(.text)
    .text                                    0x080003ec   Section        8  rt_errno_addr_intlibspace.o(.text)
    .text                                    0x080003f4   Section        8  libspace.o(.text)
    .text                                    0x080003fc   Section       74  sys_stackheap_outer.o(.text)
    .text                                    0x08000446   Section        0  exit.o(.text)
    .text                                    0x08000458   Section        0  sys_exit.o(.text)
    .text                                    0x08000464   Section        2  use_no_semi.o(.text)
    .text                                    0x08000466   Section        0  indicate_semi.o(.text)
    i.ADC1_2_IRQHandler                      0x08000468   Section        0  adc.o(i.ADC1_2_IRQHandler)
    i.ADC_Config                             0x080004ac   Section        0  adc.o(i.ADC_Config)
    i.BusFault_Handler                       0x080004b4   Section        0  at32f413_int.o(i.BusFault_Handler)
    i.Car_Cali                               0x080004b8   Section        0  calibration.o(i.Car_Cali)
    i.Clarke_Park_Ipark                      0x08000648   Section        0  at32f413rc_foc_lib.o(i.Clarke_Park_Ipark)
    i.DMA1_Channel3_IRQHandler               0x0800074c   Section        0  ws2812.o(i.DMA1_Channel3_IRQHandler)
    i.DMA1_Channel4_IRQHandler               0x08000778   Section        0  usart.o(i.DMA1_Channel4_IRQHandler)
    i.DMA1_Channel7_IRQHandler               0x08000798   Section        0  usart.o(i.DMA1_Channel7_IRQHandler)
    i.DebugMon_Handler                       0x080007b8   Section        0  at32f413_int.o(i.DebugMon_Handler)
    i.Dma_rx1                                0x080007bc   Section        0  usart.o(i.Dma_rx1)
    i.Dma_rx2                                0x08000838   Section        0  usart.o(i.Dma_rx2)
    i.Dma_tx1                                0x080008b4   Section        0  usart.o(i.Dma_tx1)
    i.Dma_tx2                                0x08000944   Section        0  usart.o(i.Dma_tx2)
    i.G_LED                                  0x080009d4   Section        0  led.o(i.G_LED)
    i.Get_InputVolt                          0x08000b70   Section        0  adc.o(i.Get_InputVolt)
    i.Get_mpu6500                            0x08000be0   Section        0  mpu6500.o(i.Get_mpu6500)
    i.Gpio_config                            0x08000c14   Section        0  gpio_config.o(i.Gpio_config)
    i.Gyro_Cali                              0x08000cd0   Section        0  calibration.o(i.Gyro_Cali)
    i.HardFault_Handler                      0x08000cf8   Section        0  at32f413_int.o(i.HardFault_Handler)
    i.IMU_Init                               0x08000cfc   Section        0  mpu6500.o(i.IMU_Init)
    i.IMU_Read_Reg                           0x08000db8   Section        0  mpu6500.o(i.IMU_Read_Reg)
    i.IMU_Write_Reg                          0x08000de4   Section        0  mpu6500.o(i.IMU_Write_Reg)
    i.IMU_handle                             0x08000e10   Section        0  ahrs.o(i.IMU_handle)
    i.Key_Init                               0x080012f8   Section        0  key.o(i.Key_Init)
    i.Key_Scan                               0x08001340   Section        0  key.o(i.Key_Scan)
    i.LED_Init                               0x080014c0   Section        0  led.o(i.LED_Init)
    i.M1Current_ClosedLoop                   0x08001554   Section        0  control.o(i.M1Current_ClosedLoop)
    i.M1SpeedControl                         0x080015ac   Section        0  control.o(i.M1SpeedControl)
    i.M1_Control                             0x080015f8   Section        0  control.o(i.M1_Control)
    i.M1_FOC_handle                          0x0800169c   Section        0  at32f413rc_foc_lib.o(i.M1_FOC_handle)
    i.M2Current_ClosedLoop                   0x08001bcc   Section        0  control.o(i.M2Current_ClosedLoop)
    i.M2SpeedControl                         0x08001c24   Section        0  control.o(i.M2SpeedControl)
    i.M2_Control                             0x08001c70   Section        0  control.o(i.M2_Control)
    i.M2_FOC_handle                          0x08001d18   Section        0  at32f413rc_foc_lib.o(i.M2_FOC_handle)
    i.MemManage_Handler                      0x08002248   Section        0  at32f413_int.o(i.MemManage_Handler)
    i.MotorControl                           0x0800224c   Section        0  control.o(i.MotorControl)
    i.NMI_Handler                            0x080026d4   Section        0  at32f413_int.o(i.NMI_Handler)
    i.PID_Adjust                             0x080026d6   Section        0  control.o(i.PID_Adjust)
    i.PID_Adjust_S                           0x080027b0   Section        0  at32f413rc_foc_lib.o(i.PID_Adjust_S)
    i.PID_Adjust_T                           0x08002904   Section        0  control.o(i.PID_Adjust_T)
    i.PendSV_Handler                         0x08002a1e   Section        0  at32f413_int.o(i.PendSV_Handler)
    i.Peripherals_Init                       0x08002a20   Section        0  app.o(i.Peripherals_Init)
    i.R_LED                                  0x08002c18   Section        0  led.o(i.R_LED)
    i.RcData                                 0x08002dd0   Section        0  rcdata.o(i.RcData)
    i.Read_Cali_Data                         0x080036c4   Section        0  calibration.o(i.Read_Cali_Data)
    i.Read_M1_Encoder                        0x080037d8   Section        0  encoder.o(i.Read_M1_Encoder)
    i.Read_M2_Encoder                        0x08003824   Section        0  encoder.o(i.Read_M2_Encoder)
    i.SPI1_Init                              0x08003874   Section        0  mpu6500.o(i.SPI1_Init)
    i.SPI1_ReadWriteByte                     0x08003938   Section        0  mpu6500.o(i.SPI1_ReadWriteByte)
    SPI1_ReadWriteByte                       0x08003939   Thumb Code    78  mpu6500.o(i.SPI1_ReadWriteByte)
    i.SPI2_ReadWriteByte                     0x0800398c   Section        0  encoder.o(i.SPI2_ReadWriteByte)
    i.SVC_Handler                            0x080039dc   Section        0  at32f413_int.o(i.SVC_Handler)
    i.SpeedCompute                           0x080039e0   Section        0  control.o(i.SpeedCompute)
    i.SysTick_Handler                        0x08003a9c   Section        0  at32f413_int.o(i.SysTick_Handler)
    i.SystemInit                             0x08003aa0   Section        0  system_at32f413.o(i.SystemInit)
    i.TIM1_Init                              0x08003b10   Section        0  timer.o(i.TIM1_Init)
    i.TIM2_Init                              0x08003c38   Section        0  timer.o(i.TIM2_Init)
    i.TIM5_Init                              0x08003d18   Section        0  timer.o(i.TIM5_Init)
    i.TIM8_Init                              0x08003d7c   Section        0  timer.o(i.TIM8_Init)
    i.TLE5012B_Init                          0x08003ea4   Section        0  encoder.o(i.TLE5012B_Init)
    i.TMR1_TRG_HALL_TMR11_IRQHandler         0x08003f78   Section        0  timer.o(i.TMR1_TRG_HALL_TMR11_IRQHandler)
    i.TMR5_GLOBAL_IRQHandler                 0x08003f88   Section        0  timer.o(i.TMR5_GLOBAL_IRQHandler)
    i.TMR8_TRG_HALL_IRQHandler               0x08003fac   Section        0  timer.o(i.TMR8_TRG_HALL_IRQHandler)
    i.TriggerADC_Init                        0x08003fbc   Section        0  adc.o(i.TriggerADC_Init)
    i.UART1_SendDataDMA                      0x08004178   Section        0  usart.o(i.UART1_SendDataDMA)
    i.UART2_SendDataDMA                      0x080041b8   Section        0  usart.o(i.UART2_SendDataDMA)
    i.USART1_IRQHandler                      0x080041f8   Section        0  usart.o(i.USART1_IRQHandler)
    i.USART1_init                            0x0800425c   Section        0  usart.o(i.USART1_init)
    i.USART2_IRQHandler                      0x08004328   Section        0  usart.o(i.USART2_IRQHandler)
    i.USART2_init                            0x0800438c   Section        0  usart.o(i.USART2_init)
    i.UsageFault_Handler                     0x0800446c   Section        0  at32f413_int.o(i.UsageFault_Handler)
    i.UsartPrint                             0x08004470   Section        0  debug.o(i.UsartPrint)
    i.WS2812_init                            0x08004598   Section        0  ws2812.o(i.WS2812_init)
    i.Write_Cali_Data                        0x080046c8   Section        0  calibration.o(i.Write_Cali_Data)
    i.__ARM_fpclassifyf                      0x0800472c   Section        0  fpclassifyf.o(i.__ARM_fpclassifyf)
    i.__hardfp_atan2f                        0x08004754   Section        0  atan2f.o(i.__hardfp_atan2f)
    i.__hardfp_cosf                          0x080049a4   Section        0  cosf.o(i.__hardfp_cosf)
    i.__hardfp_fabs                          0x08004af4   Section        0  fabs.o(i.__hardfp_fabs)
    i.__hardfp_sinf                          0x08004b08   Section        0  sinf.o(i.__hardfp_sinf)
    i.__mathlib_flt_infnan                   0x08004c98   Section        0  funder.o(i.__mathlib_flt_infnan)
    i.__mathlib_flt_infnan2                  0x08004c9e   Section        0  funder.o(i.__mathlib_flt_infnan2)
    i.__mathlib_flt_invalid                  0x08004ca4   Section        0  funder.o(i.__mathlib_flt_invalid)
    i.__mathlib_flt_underflow                0x08004cb4   Section        0  funder.o(i.__mathlib_flt_underflow)
    i.__mathlib_rredf2                       0x08004cc4   Section        0  rredf.o(i.__mathlib_rredf2)
    i.adc_base_config                        0x08004e18   Section        0  at32f413_adc.o(i.adc_base_config)
    i.adc_base_default_para_init             0x08004e44   Section        0  at32f413_adc.o(i.adc_base_default_para_init)
    i.adc_calibration_init                   0x08004e52   Section        0  at32f413_adc.o(i.adc_calibration_init)
    i.adc_calibration_init_status_get        0x08004e5e   Section        0  at32f413_adc.o(i.adc_calibration_init_status_get)
    i.adc_calibration_start                  0x08004e70   Section        0  at32f413_adc.o(i.adc_calibration_start)
    i.adc_calibration_status_get             0x08004e7c   Section        0  at32f413_adc.o(i.adc_calibration_status_get)
    i.adc_dma_mode_enable                    0x08004e8e   Section        0  at32f413_adc.o(i.adc_dma_mode_enable)
    i.adc_enable                             0x08004e98   Section        0  at32f413_adc.o(i.adc_enable)
    i.adc_flag_clear                         0x08004ea2   Section        0  at32f413_adc.o(i.adc_flag_clear)
    i.adc_flag_get                           0x08004ea8   Section        0  at32f413_adc.o(i.adc_flag_get)
    i.adc_interrupt_enable                   0x08004eb8   Section        0  at32f413_adc.o(i.adc_interrupt_enable)
    i.adc_preempt_auto_mode_enable           0x08004ece   Section        0  at32f413_adc.o(i.adc_preempt_auto_mode_enable)
    i.adc_preempt_channel_length_set         0x08004ed8   Section        0  at32f413_adc.o(i.adc_preempt_channel_length_set)
    i.adc_preempt_channel_set                0x08004ee4   Section        0  at32f413_adc.o(i.adc_preempt_channel_set)
    i.adc_preempt_conversion_trigger_set     0x08005006   Section        0  at32f413_adc.o(i.adc_preempt_conversion_trigger_set)
    i.crm_adc_clock_div_set                  0x0800503c   Section        0  at32f413_crm.o(i.crm_adc_clock_div_set)
    i.crm_ahb_div_set                        0x0800505c   Section        0  at32f413_crm.o(i.crm_ahb_div_set)
    i.crm_apb1_div_set                       0x08005070   Section        0  at32f413_crm.o(i.crm_apb1_div_set)
    i.crm_apb2_div_set                       0x08005084   Section        0  at32f413_crm.o(i.crm_apb2_div_set)
    i.crm_auto_step_mode_enable              0x08005098   Section        0  at32f413_crm.o(i.crm_auto_step_mode_enable)
    i.crm_clock_source_enable                0x080050c0   Section        0  at32f413_crm.o(i.crm_clock_source_enable)
    i.crm_clocks_freq_get                    0x08005120   Section        0  at32f413_crm.o(i.crm_clocks_freq_get)
    i.crm_flag_get                           0x0800523c   Section        0  at32f413_crm.o(i.crm_flag_get)
    i.crm_hext_stable_wait                   0x0800526c   Section        0  at32f413_crm.o(i.crm_hext_stable_wait)
    i.crm_periph_clock_enable                0x0800529c   Section        0  at32f413_crm.o(i.crm_periph_clock_enable)
    i.crm_pll_config                         0x080052e0   Section        0  at32f413_crm.o(i.crm_pll_config)
    i.crm_reset                              0x0800534c   Section        0  at32f413_crm.o(i.crm_reset)
    i.crm_sysclk_switch                      0x080053a4   Section        0  at32f413_crm.o(i.crm_sysclk_switch)
    i.crm_sysclk_switch_status_get           0x080053b8   Section        0  at32f413_crm.o(i.crm_sysclk_switch_status_get)
    i.delay_init                             0x080053c8   Section        0  delay.o(i.delay_init)
    i.delay_ms                               0x080053f8   Section        0  delay.o(i.delay_ms)
    i.dma_channel_enable                     0x08005434   Section        0  at32f413_dma.o(i.dma_channel_enable)
    i.dma_data_number_get                    0x0800543e   Section        0  at32f413_dma.o(i.dma_data_number_get)
    i.dma_data_number_set                    0x08005446   Section        0  at32f413_dma.o(i.dma_data_number_set)
    i.dma_default_para_init                  0x0800544a   Section        0  at32f413_dma.o(i.dma_default_para_init)
    i.dma_flag_clear                         0x08005464   Section        0  at32f413_dma.o(i.dma_flag_clear)
    i.dma_flag_get                           0x08005484   Section        0  at32f413_dma.o(i.dma_flag_get)
    i.dma_flexible_config                    0x080054b0   Section        0  at32f413_dma.o(i.dma_flexible_config)
    i.dma_init                               0x08005548   Section        0  at32f413_dma.o(i.dma_init)
    i.dma_interrupt_enable                   0x080055a4   Section        0  at32f413_dma.o(i.dma_interrupt_enable)
    i.dma_reset                              0x080055b8   Section        0  at32f413_dma.o(i.dma_reset)
    i.fabsf                                  0x08005628   Section        0  control.o(i.fabsf)
    fabsf                                    0x08005629   Thumb Code    10  control.o(i.fabsf)
    i.flash_flag_clear                       0x08005634   Section        0  at32f413_flash.o(i.flash_flag_clear)
    i.flash_halfword_program                 0x08005660   Section        0  at32f413_flash.o(i.flash_halfword_program)
    i.flash_lock                             0x080056d4   Section        0  at32f413_flash.o(i.flash_lock)
    i.flash_operation_status_get             0x080056e8   Section        0  at32f413_flash.o(i.flash_operation_status_get)
    i.flash_operation_wait_for               0x0800571c   Section        0  at32f413_flash.o(i.flash_operation_wait_for)
    i.flash_read                             0x08005740   Section        0  flash.o(i.flash_read)
    i.flash_sector_erase                     0x0800575c   Section        0  at32f413_flash.o(i.flash_sector_erase)
    i.flash_spim_operation_status_get        0x080057e8   Section        0  at32f413_flash.o(i.flash_spim_operation_status_get)
    i.flash_spim_operation_wait_for          0x0800581c   Section        0  at32f413_flash.o(i.flash_spim_operation_wait_for)
    i.flash_unlock                           0x08005840   Section        0  at32f413_flash.o(i.flash_unlock)
    i.flash_write                            0x08005858   Section        0  flash.o(i.flash_write)
    i.flash_write_nocheck                    0x08005978   Section        0  flash.o(i.flash_write_nocheck)
    i.gpio_bits_reset                        0x080059b0   Section        0  at32f413_gpio.o(i.gpio_bits_reset)
    i.gpio_bits_set                          0x080059b4   Section        0  at32f413_gpio.o(i.gpio_bits_set)
    i.gpio_default_para_init                 0x080059b8   Section        0  at32f413_gpio.o(i.gpio_default_para_init)
    i.gpio_init                              0x080059ce   Section        0  at32f413_gpio.o(i.gpio_init)
    i.gpio_input_data_bit_read               0x08005a76   Section        0  at32f413_gpio.o(i.gpio_input_data_bit_read)
    i.gpio_pin_remap_config                  0x08005a88   Section        0  at32f413_gpio.o(i.gpio_pin_remap_config)
    i.main                                   0x08005ad4   Section        0  main.o(i.main)
    i.nvic_irq_enable                        0x08005aec   Section        0  at32f413_misc.o(i.nvic_irq_enable)
    i.nvic_priority_group_config             0x08005bb4   Section        0  at32f413_misc.o(i.nvic_priority_group_config)
    i.parameters_Init                        0x08005bdc   Section        0  control.o(i.parameters_Init)
    i.send_Data                              0x08006068   Section        0  ws2812.o(i.send_Data)
    i.spi_default_para_init                  0x0800614c   Section        0  at32f413_spi.o(i.spi_default_para_init)
    i.spi_enable                             0x08006162   Section        0  at32f413_spi.o(i.spi_enable)
    i.spi_i2s_data_receive                   0x0800616c   Section        0  at32f413_spi.o(i.spi_i2s_data_receive)
    i.spi_i2s_data_transmit                  0x08006174   Section        0  at32f413_spi.o(i.spi_i2s_data_transmit)
    i.spi_i2s_flag_get                       0x08006178   Section        0  at32f413_spi.o(i.spi_i2s_flag_get)
    i.spi_init                               0x08006188   Section        0  at32f413_spi.o(i.spi_init)
    i.svpwm                                  0x080062ac   Section        0  at32f413rc_foc_lib.o(i.svpwm)
    i.system_clock_config                    0x08006768   Section        0  at32f413_clock.o(i.system_clock_config)
    i.system_core_clock_update               0x080067d4   Section        0  system_at32f413.o(i.system_core_clock_update)
    i.systick_clock_source_config            0x080068c4   Section        0  at32f413_misc.o(i.systick_clock_source_config)
    i.tmr_base_init                          0x080068ec   Section        0  at32f413_tmr.o(i.tmr_base_init)
    i.tmr_brkdt_config                       0x080068fc   Section        0  at32f413_tmr.o(i.tmr_brkdt_config)
    i.tmr_brkdt_default_para_init            0x08006944   Section        0  at32f413_tmr.o(i.tmr_brkdt_default_para_init)
    i.tmr_channel_value_set                  0x08006956   Section        0  at32f413_tmr.o(i.tmr_channel_value_set)
    i.tmr_clock_source_div_set               0x0800697e   Section        0  at32f413_tmr.o(i.tmr_clock_source_div_set)
    i.tmr_cnt_dir_set                        0x08006988   Section        0  at32f413_tmr.o(i.tmr_cnt_dir_set)
    i.tmr_counter_enable                     0x08006992   Section        0  at32f413_tmr.o(i.tmr_counter_enable)
    i.tmr_dma_request_enable                 0x0800699c   Section        0  at32f413_tmr.o(i.tmr_dma_request_enable)
    i.tmr_flag_clear                         0x080069b2   Section        0  at32f413_tmr.o(i.tmr_flag_clear)
    i.tmr_flag_get                           0x080069b8   Section        0  at32f413_tmr.o(i.tmr_flag_get)
    i.tmr_interrupt_enable                   0x080069ca   Section        0  at32f413_tmr.o(i.tmr_interrupt_enable)
    i.tmr_output_channel_buffer_enable       0x080069e0   Section        0  at32f413_tmr.o(i.tmr_output_channel_buffer_enable)
    i.tmr_output_channel_config              0x08006a22   Section        0  at32f413_tmr.o(i.tmr_output_channel_config)
    i.tmr_output_default_para_init           0x08006bc2   Section        0  at32f413_tmr.o(i.tmr_output_default_para_init)
    i.tmr_output_enable                      0x08006bd4   Section        0  at32f413_tmr.o(i.tmr_output_enable)
    i.tmr_period_buffer_enable               0x08006bde   Section        0  at32f413_tmr.o(i.tmr_period_buffer_enable)
    i.usart_dma_receiver_enable              0x08006be8   Section        0  at32f413_usart.o(i.usart_dma_receiver_enable)
    i.usart_dma_transmitter_enable           0x08006bf2   Section        0  at32f413_usart.o(i.usart_dma_transmitter_enable)
    i.usart_enable                           0x08006bfc   Section        0  at32f413_usart.o(i.usart_enable)
    i.usart_flag_clear                       0x08006c06   Section        0  at32f413_usart.o(i.usart_flag_clear)
    i.usart_flag_get                         0x08006c18   Section        0  at32f413_usart.o(i.usart_flag_get)
    i.usart_init                             0x08006c28   Section        0  at32f413_usart.o(i.usart_init)
    i.usart_interrupt_enable                 0x08006c94   Section        0  at32f413_usart.o(i.usart_interrupt_enable)
    i.usart_receiver_enable                  0x08006cca   Section        0  at32f413_usart.o(i.usart_receiver_enable)
    i.usart_transmitter_enable               0x08006cd4   Section        0  at32f413_usart.o(i.usart_transmitter_enable)
    x$fpl$dcmpinf                            0x08006cde   Section       24  dcmpi.o(x$fpl$dcmpinf)
    $v0                                      0x08006cde   Number         0  dcmpi.o(x$fpl$dcmpinf)
    x$fpl$dleqf                              0x08006cf8   Section      120  dleqf.o(x$fpl$dleqf)
    $v0                                      0x08006cf8   Number         0  dleqf.o(x$fpl$dleqf)
    x$fpl$dnaninf                            0x08006d70   Section      156  dnaninf.o(x$fpl$dnaninf)
    $v0                                      0x08006d70   Number         0  dnaninf.o(x$fpl$dnaninf)
    x$fpl$dretinf                            0x08006e0c   Section       12  dretinf.o(x$fpl$dretinf)
    $v0                                      0x08006e0c   Number         0  dretinf.o(x$fpl$dretinf)
    x$fpl$drleqf                             0x08006e18   Section      108  drleqf.o(x$fpl$drleqf)
    $v0                                      0x08006e18   Number         0  drleqf.o(x$fpl$drleqf)
    x$fpl$f2d                                0x08006e84   Section       86  f2d.o(x$fpl$f2d)
    $v0                                      0x08006e84   Number         0  f2d.o(x$fpl$f2d)
    x$fpl$fnaninf                            0x08006eda   Section      140  fnaninf.o(x$fpl$fnaninf)
    $v0                                      0x08006eda   Number         0  fnaninf.o(x$fpl$fnaninf)
    x$fpl$fpinit                             0x08006f66   Section       10  fpinit.o(x$fpl$fpinit)
    $v0                                      0x08006f66   Number         0  fpinit.o(x$fpl$fpinit)
    .constdata                               0x08006f70   Section       16  system_at32f413.o(.constdata)
    x$fpl$usenofp                            0x08006f70   Section        0  usenofp.o(x$fpl$usenofp)
    sys_ahb_div_table                        0x08006f70   Data          16  system_at32f413.o(.constdata)
    .constdata                               0x08006f80   Section       40  at32f413_crm.o(.constdata)
    sclk_ahb_div_table                       0x08006f80   Data          16  at32f413_crm.o(.constdata)
    ahb_apb1_div_table                       0x08006f90   Data           8  at32f413_crm.o(.constdata)
    ahb_apb2_div_table                       0x08006f98   Data           8  at32f413_crm.o(.constdata)
    adc_div_table                            0x08006fa0   Data           8  at32f413_crm.o(.constdata)
    .constdata                               0x08006fa8   Section    83470  at32f413rc_foc_lib.o(.constdata)
    .constdata                               0x0801b5b8   Section       32  rredf.o(.constdata)
    twooverpi                                0x0801b5b8   Data          32  rredf.o(.constdata)
    .data                                    0x20000000   Section        4  system_at32f413.o(.data)
    .data                                    0x20000004   Section        1  timer.o(.data)
    .data                                    0x20000005   Section        1  mpu6500.o(.data)
    .data                                    0x20000006   Section       68  debug.o(.data)
    .data                                    0x2000004a   Section        1  ahrs.o(.data)
    .data                                    0x2000004c   Section        4  led.o(.data)
    .data                                    0x20000050   Section        8  key.o(.data)
    .data                                    0x20000058   Section       22  app.o(.data)
    .data                                    0x2000006e   Section        1  calibration.o(.data)
    .data                                    0x20000070   Section       14  control.o(.data)
    .data                                    0x2000007e   Section       11  rcdata.o(.data)
    .data                                    0x2000008a   Section        4  delay.o(.data)
    fac_us                                   0x2000008a   Data           1  delay.o(.data)
    fac_ms                                   0x2000008c   Data           2  delay.o(.data)
    .data                                    0x2000008e   Section        4  usart.o(.data)
    .data                                    0x20000092   Section        1  ws2812.o(.data)
    .data                                    0x20000094   Section       75  at32f413rc_foc_lib.o(.data)
    .bss                                     0x200000e0   Section       20  timer.o(.bss)
    .bss                                     0x200000f4   Section      136  debug.o(.bss)
    .bss                                     0x2000017c   Section      174  ahrs.o(.bss)
    .bss                                     0x2000022a   Section     2048  flash.o(.bss)
    .bss                                     0x20000a2a   Section      302  calibration.o(.bss)
    .bss                                     0x20000b58   Section      882  control.o(.bss)
    .bss                                     0x20000ecc   Section       24  rcdata.o(.bss)
    .bss                                     0x20000ee4   Section      512  usart.o(.bss)
    .bss                                     0x200010e4   Section      420  ws2812.o(.bss)
    .bss                                     0x20001288   Section      288  at32f413rc_foc_lib.o(.bss)
    .bss                                     0x200013a8   Section       96  libspace.o(.bss)
    HEAP                                     0x20001408   Section      512  startup_at32f413.o(HEAP)
    Heap_Mem                                 0x20001408   Data         512  startup_at32f413.o(HEAP)
    STACK                                    0x20001608   Section     1024  startup_at32f413.o(STACK)
    Stack_Mem                                0x20001608   Data        1024  startup_at32f413.o(STACK)
    __initial_sp                             0x20001a08   Data           0  startup_at32f413.o(STACK)

    Global Symbols

    Symbol Name                              Value     Ov Type        Size  Object(Section)

    BuildAttributes$$THM_ISAv4$E$P$D$K$B$S$7EM$VFPi3$EXTD16$VFPS$VFMA$PE$A:L22UL41UL21$X:L11$S22US41US21$IEEE1$IW$USESV6$~STKCKD$USESV7$~SHL$OTIME$ROPI$IEEEX$EBA8$UX$STANDARDLIB$REQ8$PRES8$EABIv2 0x00000000   Number         0  anon$$obj.o ABSOLUTE
    __ARM_use_no_argv                        0x00000000   Number         0  main.o ABSOLUTE
    __ARM_exceptions_init                     - Undefined Weak Reference
    __alloca_initialize                       - Undefined Weak Reference
    __arm_preinit_                            - Undefined Weak Reference
    __cpp_initialize__aeabi_                  - Undefined Weak Reference
    __cxa_finalize                            - Undefined Weak Reference
    __rt_locale                               - Undefined Weak Reference
    __sigvec_lookup                           - Undefined Weak Reference
    _atexit_init                              - Undefined Weak Reference
    _call_atexit_fns                          - Undefined Weak Reference
    _clock_init                               - Undefined Weak Reference
    _fp_trap_init                             - Undefined Weak Reference
    _fp_trap_shutdown                         - Undefined Weak Reference
    _get_lc_collate                           - Undefined Weak Reference
    _get_lc_ctype                             - Undefined Weak Reference
    _get_lc_monetary                          - Undefined Weak Reference
    _get_lc_numeric                           - Undefined Weak Reference
    _get_lc_time                              - Undefined Weak Reference
    _getenv_init                              - Undefined Weak Reference
    _handle_redirection                       - Undefined Weak Reference
    _init_alloc                               - Undefined Weak Reference
    _init_user_alloc                          - Undefined Weak Reference
    _initio                                   - Undefined Weak Reference
    _rand_init                                - Undefined Weak Reference
    _signal_finish                            - Undefined Weak Reference
    _signal_init                              - Undefined Weak Reference
    _terminate_alloc                          - Undefined Weak Reference
    _terminate_user_alloc                     - Undefined Weak Reference
    _terminateio                              - Undefined Weak Reference
    __Vectors_Size                           0x00000170   Number         0  startup_at32f413.o ABSOLUTE
    __Vectors                                0x08000000   Data           4  startup_at32f413.o(RESET)
    __Vectors_End                            0x08000170   Data           0  startup_at32f413.o(RESET)
    __main                                   0x08000171   Thumb Code     8  __main.o(!!!main)
    __scatterload                            0x08000179   Thumb Code     0  __scatter.o(!!!scatter)
    __scatterload_rt2                        0x08000179   Thumb Code    44  __scatter.o(!!!scatter)
    __scatterload_rt2_thumb_only             0x08000179   Thumb Code     0  __scatter.o(!!!scatter)
    __scatterload_null                       0x08000187   Thumb Code     0  __scatter.o(!!!scatter)
    __scatterload_copy                       0x080001ad   Thumb Code    26  __scatter_copy.o(!!handler_copy)
    __scatterload_zeroinit                   0x080001c9   Thumb Code    28  __scatter_zi.o(!!handler_zi)
    __rt_lib_init                            0x080001e5   Thumb Code     0  libinit.o(.ARM.Collect$$libinit$$00000000)
    __rt_lib_init_fp_1                       0x080001e7   Thumb Code     0  libinit2.o(.ARM.Collect$$libinit$$00000001)
    __rt_lib_init_alloca_1                   0x080001eb   Thumb Code     0  libinit2.o(.ARM.Collect$$libinit$$0000002E)
    __rt_lib_init_argv_1                     0x080001eb   Thumb Code     0  libinit2.o(.ARM.Collect$$libinit$$0000002C)
    __rt_lib_init_atexit_1                   0x080001eb   Thumb Code     0  libinit2.o(.ARM.Collect$$libinit$$0000001B)
    __rt_lib_init_clock_1                    0x080001eb   Thumb Code     0  libinit2.o(.ARM.Collect$$libinit$$00000021)
    __rt_lib_init_cpp_1                      0x080001eb   Thumb Code     0  libinit2.o(.ARM.Collect$$libinit$$00000032)
    __rt_lib_init_exceptions_1               0x080001eb   Thumb Code     0  libinit2.o(.ARM.Collect$$libinit$$00000030)
    __rt_lib_init_fp_trap_1                  0x080001eb   Thumb Code     0  libinit2.o(.ARM.Collect$$libinit$$0000001F)
    __rt_lib_init_getenv_1                   0x080001eb   Thumb Code     0  libinit2.o(.ARM.Collect$$libinit$$00000023)
    __rt_lib_init_heap_1                     0x080001eb   Thumb Code     0  libinit2.o(.ARM.Collect$$libinit$$0000000A)
    __rt_lib_init_lc_collate_1               0x080001eb   Thumb Code     0  libinit2.o(.ARM.Collect$$libinit$$00000011)
    __rt_lib_init_lc_ctype_1                 0x080001eb   Thumb Code     0  libinit2.o(.ARM.Collect$$libinit$$00000013)
    __rt_lib_init_lc_monetary_1              0x080001eb   Thumb Code     0  libinit2.o(.ARM.Collect$$libinit$$00000015)
    __rt_lib_init_lc_numeric_1               0x080001eb   Thumb Code     0  libinit2.o(.ARM.Collect$$libinit$$00000017)
    __rt_lib_init_lc_time_1                  0x080001eb   Thumb Code     0  libinit2.o(.ARM.Collect$$libinit$$00000019)
    __rt_lib_init_preinit_1                  0x080001eb   Thumb Code     0  libinit2.o(.ARM.Collect$$libinit$$00000004)
    __rt_lib_init_rand_1                     0x080001eb   Thumb Code     0  libinit2.o(.ARM.Collect$$libinit$$0000000E)
    __rt_lib_init_return                     0x080001eb   Thumb Code     0  libinit2.o(.ARM.Collect$$libinit$$00000033)
    __rt_lib_init_signal_1                   0x080001eb   Thumb Code     0  libinit2.o(.ARM.Collect$$libinit$$0000001D)
    __rt_lib_init_stdio_1                    0x080001eb   Thumb Code     0  libinit2.o(.ARM.Collect$$libinit$$00000025)
    __rt_lib_init_user_alloc_1               0x080001eb   Thumb Code     0  libinit2.o(.ARM.Collect$$libinit$$0000000C)
    __rt_lib_shutdown                        0x080001ed   Thumb Code     0  libshutdown.o(.ARM.Collect$$libshutdown$$00000000)
    __rt_lib_shutdown_cpp_1                  0x080001ef   Thumb Code     0  libshutdown2.o(.ARM.Collect$$libshutdown$$00000002)
    __rt_lib_shutdown_fp_trap_1              0x080001ef   Thumb Code     0  libshutdown2.o(.ARM.Collect$$libshutdown$$00000007)
    __rt_lib_shutdown_heap_1                 0x080001ef   Thumb Code     0  libshutdown2.o(.ARM.Collect$$libshutdown$$0000000F)
    __rt_lib_shutdown_return                 0x080001ef   Thumb Code     0  libshutdown2.o(.ARM.Collect$$libshutdown$$00000010)
    __rt_lib_shutdown_signal_1               0x080001ef   Thumb Code     0  libshutdown2.o(.ARM.Collect$$libshutdown$$0000000A)
    __rt_lib_shutdown_stdio_1                0x080001ef   Thumb Code     0  libshutdown2.o(.ARM.Collect$$libshutdown$$00000004)
    __rt_lib_shutdown_user_alloc_1           0x080001ef   Thumb Code     0  libshutdown2.o(.ARM.Collect$$libshutdown$$0000000C)
    __rt_entry                               0x080001f1   Thumb Code     0  __rtentry.o(.ARM.Collect$$rtentry$$00000000)
    __rt_entry_presh_1                       0x080001f1   Thumb Code     0  __rtentry2.o(.ARM.Collect$$rtentry$$00000002)
    __rt_entry_sh                            0x080001f1   Thumb Code     0  __rtentry4.o(.ARM.Collect$$rtentry$$00000004)
    __rt_entry_li                            0x080001f7   Thumb Code     0  __rtentry2.o(.ARM.Collect$$rtentry$$0000000A)
    __rt_entry_postsh_1                      0x080001f7   Thumb Code     0  __rtentry2.o(.ARM.Collect$$rtentry$$00000009)
    __rt_entry_main                          0x080001fb   Thumb Code     0  __rtentry2.o(.ARM.Collect$$rtentry$$0000000D)
    __rt_entry_postli_1                      0x080001fb   Thumb Code     0  __rtentry2.o(.ARM.Collect$$rtentry$$0000000C)
    __rt_exit                                0x08000203   Thumb Code     0  rtexit.o(.ARM.Collect$$rtexit$$00000000)
    __rt_exit_ls                             0x08000205   Thumb Code     0  rtexit2.o(.ARM.Collect$$rtexit$$00000003)
    __rt_exit_prels_1                        0x08000205   Thumb Code     0  rtexit2.o(.ARM.Collect$$rtexit$$00000002)
    __rt_exit_exit                           0x08000209   Thumb Code     0  rtexit2.o(.ARM.Collect$$rtexit$$00000004)
    Reset_Handler                            0x08000211   Thumb Code     8  startup_at32f413.o(.text)
    ACC_IRQHandler                           0x0800022b   Thumb Code     0  startup_at32f413.o(.text)
    CAN1_RX1_IRQHandler                      0x0800022b   Thumb Code     0  startup_at32f413.o(.text)
    CAN1_SE_IRQHandler                       0x0800022b   Thumb Code     0  startup_at32f413.o(.text)
    CAN2_RX0_IRQHandler                      0x0800022b   Thumb Code     0  startup_at32f413.o(.text)
    CAN2_RX1_IRQHandler                      0x0800022b   Thumb Code     0  startup_at32f413.o(.text)
    CAN2_SE_IRQHandler                       0x0800022b   Thumb Code     0  startup_at32f413.o(.text)
    CAN2_TX_IRQHandler                       0x0800022b   Thumb Code     0  startup_at32f413.o(.text)
    CRM_IRQHandler                           0x0800022b   Thumb Code     0  startup_at32f413.o(.text)
    DMA1_Channel1_IRQHandler                 0x0800022b   Thumb Code     0  startup_at32f413.o(.text)
    DMA1_Channel2_IRQHandler                 0x0800022b   Thumb Code     0  startup_at32f413.o(.text)
    DMA1_Channel5_IRQHandler                 0x0800022b   Thumb Code     0  startup_at32f413.o(.text)
    DMA1_Channel6_IRQHandler                 0x0800022b   Thumb Code     0  startup_at32f413.o(.text)
    DMA2_Channel1_IRQHandler                 0x0800022b   Thumb Code     0  startup_at32f413.o(.text)
    DMA2_Channel2_IRQHandler                 0x0800022b   Thumb Code     0  startup_at32f413.o(.text)
    DMA2_Channel3_IRQHandler                 0x0800022b   Thumb Code     0  startup_at32f413.o(.text)
    DMA2_Channel4_5_IRQHandler               0x0800022b   Thumb Code     0  startup_at32f413.o(.text)
    DMA2_Channel6_7_IRQHandler               0x0800022b   Thumb Code     0  startup_at32f413.o(.text)
    EXINT0_IRQHandler                        0x0800022b   Thumb Code     0  startup_at32f413.o(.text)
    EXINT15_10_IRQHandler                    0x0800022b   Thumb Code     0  startup_at32f413.o(.text)
    EXINT1_IRQHandler                        0x0800022b   Thumb Code     0  startup_at32f413.o(.text)
    EXINT2_IRQHandler                        0x0800022b   Thumb Code     0  startup_at32f413.o(.text)
    EXINT3_IRQHandler                        0x0800022b   Thumb Code     0  startup_at32f413.o(.text)
    EXINT4_IRQHandler                        0x0800022b   Thumb Code     0  startup_at32f413.o(.text)
    EXINT9_5_IRQHandler                      0x0800022b   Thumb Code     0  startup_at32f413.o(.text)
    FLASH_IRQHandler                         0x0800022b   Thumb Code     0  startup_at32f413.o(.text)
    I2C1_ERR_IRQHandler                      0x0800022b   Thumb Code     0  startup_at32f413.o(.text)
    I2C1_EVT_IRQHandler                      0x0800022b   Thumb Code     0  startup_at32f413.o(.text)
    I2C2_ERR_IRQHandler                      0x0800022b   Thumb Code     0  startup_at32f413.o(.text)
    I2C2_EVT_IRQHandler                      0x0800022b   Thumb Code     0  startup_at32f413.o(.text)
    PVM_IRQHandler                           0x0800022b   Thumb Code     0  startup_at32f413.o(.text)
    RTCAlarm_IRQHandler                      0x0800022b   Thumb Code     0  startup_at32f413.o(.text)
    RTC_IRQHandler                           0x0800022b   Thumb Code     0  startup_at32f413.o(.text)
    SDIO1_IRQHandler                         0x0800022b   Thumb Code     0  startup_at32f413.o(.text)
    SPI1_IRQHandler                          0x0800022b   Thumb Code     0  startup_at32f413.o(.text)
    SPI2_IRQHandler                          0x0800022b   Thumb Code     0  startup_at32f413.o(.text)
    TAMPER_IRQHandler                        0x0800022b   Thumb Code     0  startup_at32f413.o(.text)
    TMR1_BRK_TMR9_IRQHandler                 0x0800022b   Thumb Code     0  startup_at32f413.o(.text)
    TMR1_CH_IRQHandler                       0x0800022b   Thumb Code     0  startup_at32f413.o(.text)
    TMR1_OVF_TMR10_IRQHandler                0x0800022b   Thumb Code     0  startup_at32f413.o(.text)
    TMR2_GLOBAL_IRQHandler                   0x0800022b   Thumb Code     0  startup_at32f413.o(.text)
    TMR3_GLOBAL_IRQHandler                   0x0800022b   Thumb Code     0  startup_at32f413.o(.text)
    TMR4_GLOBAL_IRQHandler                   0x0800022b   Thumb Code     0  startup_at32f413.o(.text)
    TMR8_BRK_IRQHandler                      0x0800022b   Thumb Code     0  startup_at32f413.o(.text)
    TMR8_CH_IRQHandler                       0x0800022b   Thumb Code     0  startup_at32f413.o(.text)
    TMR8_OVF_IRQHandler                      0x0800022b   Thumb Code     0  startup_at32f413.o(.text)
    UART4_IRQHandler                         0x0800022b   Thumb Code     0  startup_at32f413.o(.text)
    UART5_IRQHandler                         0x0800022b   Thumb Code     0  startup_at32f413.o(.text)
    USART3_IRQHandler                        0x0800022b   Thumb Code     0  startup_at32f413.o(.text)
    USBFSWakeUp_IRQHandler                   0x0800022b   Thumb Code     0  startup_at32f413.o(.text)
    USBFS_H_CAN1_TX_IRQHandler               0x0800022b   Thumb Code     0  startup_at32f413.o(.text)
    USBFS_L_CAN1_RX0_IRQHandler              0x0800022b   Thumb Code     0  startup_at32f413.o(.text)
    USBFS_MAPH_IRQHandler                    0x0800022b   Thumb Code     0  startup_at32f413.o(.text)
    USBFS_MAPL_IRQHandler                    0x0800022b   Thumb Code     0  startup_at32f413.o(.text)
    WWDT_IRQHandler                          0x0800022b   Thumb Code     0  startup_at32f413.o(.text)
    __user_initial_stackheap                 0x0800022d   Thumb Code     0  startup_at32f413.o(.text)
    __aeabi_memcpy                           0x08000251   Thumb Code     0  rt_memcpy_v6.o(.text)
    __rt_memcpy                              0x08000251   Thumb Code   138  rt_memcpy_v6.o(.text)
    _memcpy_lastbytes                        0x080002b7   Thumb Code     0  rt_memcpy_v6.o(.text)
    __aeabi_memclr                           0x080002db   Thumb Code     0  rt_memclr.o(.text)
    __rt_memclr                              0x080002db   Thumb Code    68  rt_memclr.o(.text)
    _memset                                  0x080002df   Thumb Code     0  rt_memclr.o(.text)
    __aeabi_memclr4                          0x0800031f   Thumb Code     0  rt_memclr_w.o(.text)
    __aeabi_memclr8                          0x0800031f   Thumb Code     0  rt_memclr_w.o(.text)
    __rt_memclr_w                            0x0800031f   Thumb Code    78  rt_memclr_w.o(.text)
    _memset_w                                0x08000323   Thumb Code     0  rt_memclr_w.o(.text)
    __use_two_region_memory                  0x0800036d   Thumb Code     2  heapauxi.o(.text)
    __rt_heap_escrow$2region                 0x0800036f   Thumb Code     2  heapauxi.o(.text)
    __rt_heap_expand$2region                 0x08000371   Thumb Code     2  heapauxi.o(.text)
    __read_errno                             0x08000373   Thumb Code    10  _rserrno.o(.text)
    __set_errno                              0x0800037d   Thumb Code    12  _rserrno.o(.text)
    __aeabi_memcpy4                          0x08000389   Thumb Code     0  rt_memcpy_w.o(.text)
    __aeabi_memcpy8                          0x08000389   Thumb Code     0  rt_memcpy_w.o(.text)
    __rt_memcpy_w                            0x08000389   Thumb Code   100  rt_memcpy_w.o(.text)
    _memcpy_lastbytes_aligned                0x080003d1   Thumb Code     0  rt_memcpy_w.o(.text)
    __aeabi_errno_addr                       0x080003ed   Thumb Code     8  rt_errno_addr_intlibspace.o(.text)
    __errno$intlibspace                      0x080003ed   Thumb Code     0  rt_errno_addr_intlibspace.o(.text)
    __rt_errno_addr$intlibspace              0x080003ed   Thumb Code     0  rt_errno_addr_intlibspace.o(.text)
    __user_libspace                          0x080003f5   Thumb Code     8  libspace.o(.text)
    __user_perproc_libspace                  0x080003f5   Thumb Code     0  libspace.o(.text)
    __user_perthread_libspace                0x080003f5   Thumb Code     0  libspace.o(.text)
    __user_setup_stackheap                   0x080003fd   Thumb Code    74  sys_stackheap_outer.o(.text)
    exit                                     0x08000447   Thumb Code    18  exit.o(.text)
    _sys_exit                                0x08000459   Thumb Code     8  sys_exit.o(.text)
    __I$use$semihosting                      0x08000465   Thumb Code     0  use_no_semi.o(.text)
    __use_no_semihosting_swi                 0x08000465   Thumb Code     2  use_no_semi.o(.text)
    __semihosting_library_function           0x08000467   Thumb Code     0  indicate_semi.o(.text)
    ADC1_2_IRQHandler                        0x08000469   Thumb Code    60  adc.o(i.ADC1_2_IRQHandler)
    ADC_Config                               0x080004ad   Thumb Code     8  adc.o(i.ADC_Config)
    BusFault_Handler                         0x080004b5   Thumb Code     4  at32f413_int.o(i.BusFault_Handler)
    Car_Cali                                 0x080004b9   Thumb Code   362  calibration.o(i.Car_Cali)
    Clarke_Park_Ipark                        0x08000649   Thumb Code   246  at32f413rc_foc_lib.o(i.Clarke_Park_Ipark)
    DMA1_Channel3_IRQHandler                 0x0800074d   Thumb Code    36  ws2812.o(i.DMA1_Channel3_IRQHandler)
    DMA1_Channel4_IRQHandler                 0x08000779   Thumb Code    28  usart.o(i.DMA1_Channel4_IRQHandler)
    DMA1_Channel7_IRQHandler                 0x08000799   Thumb Code    28  usart.o(i.DMA1_Channel7_IRQHandler)
    DebugMon_Handler                         0x080007b9   Thumb Code     2  at32f413_int.o(i.DebugMon_Handler)
    Dma_rx1                                  0x080007bd   Thumb Code   112  usart.o(i.Dma_rx1)
    Dma_rx2                                  0x08000839   Thumb Code   112  usart.o(i.Dma_rx2)
    Dma_tx1                                  0x080008b5   Thumb Code   130  usart.o(i.Dma_tx1)
    Dma_tx2                                  0x08000945   Thumb Code   130  usart.o(i.Dma_tx2)
    G_LED                                    0x080009d5   Thumb Code   404  led.o(i.G_LED)
    Get_InputVolt                            0x08000b71   Thumb Code    90  adc.o(i.Get_InputVolt)
    Get_mpu6500                              0x08000be1   Thumb Code    48  mpu6500.o(i.Get_mpu6500)
    Gpio_config                              0x08000c15   Thumb Code   170  gpio_config.o(i.Gpio_config)
    Gyro_Cali                                0x08000cd1   Thumb Code    36  calibration.o(i.Gyro_Cali)
    HardFault_Handler                        0x08000cf9   Thumb Code     4  at32f413_int.o(i.HardFault_Handler)
    IMU_Init                                 0x08000cfd   Thumb Code   178  mpu6500.o(i.IMU_Init)
    IMU_Read_Reg                             0x08000db9   Thumb Code    40  mpu6500.o(i.IMU_Read_Reg)
    IMU_Write_Reg                            0x08000de5   Thumb Code    40  mpu6500.o(i.IMU_Write_Reg)
    IMU_handle                               0x08000e11   Thumb Code  1228  ahrs.o(i.IMU_handle)
    Key_Init                                 0x080012f9   Thumb Code    64  key.o(i.Key_Init)
    Key_Scan                                 0x08001341   Thumb Code   344  key.o(i.Key_Scan)
    LED_Init                                 0x080014c1   Thumb Code   136  led.o(i.LED_Init)
    M1Current_ClosedLoop                     0x08001555   Thumb Code    70  control.o(i.M1Current_ClosedLoop)
    M1SpeedControl                           0x080015ad   Thumb Code    58  control.o(i.M1SpeedControl)
    M1_Control                               0x080015f9   Thumb Code   134  control.o(i.M1_Control)
    M1_FOC_handle                            0x0800169d   Thumb Code  1292  at32f413rc_foc_lib.o(i.M1_FOC_handle)
    M2Current_ClosedLoop                     0x08001bcd   Thumb Code    70  control.o(i.M2Current_ClosedLoop)
    M2SpeedControl                           0x08001c25   Thumb Code    58  control.o(i.M2SpeedControl)
    M2_Control                               0x08001c71   Thumb Code   138  control.o(i.M2_Control)
    M2_FOC_handle                            0x08001d19   Thumb Code  1292  at32f413rc_foc_lib.o(i.M2_FOC_handle)
    MemManage_Handler                        0x08002249   Thumb Code     4  at32f413_int.o(i.MemManage_Handler)
    MotorControl                             0x0800224d   Thumb Code  1152  control.o(i.MotorControl)
    NMI_Handler                              0x080026d5   Thumb Code     2  at32f413_int.o(i.NMI_Handler)
    PID_Adjust                               0x080026d7   Thumb Code   216  control.o(i.PID_Adjust)
    PID_Adjust_S                             0x080027b1   Thumb Code   326  at32f413rc_foc_lib.o(i.PID_Adjust_S)
    PID_Adjust_T                             0x08002905   Thumb Code   282  control.o(i.PID_Adjust_T)
    PendSV_Handler                           0x08002a1f   Thumb Code     2  at32f413_int.o(i.PendSV_Handler)
    Peripherals_Init                         0x08002a21   Thumb Code   446  app.o(i.Peripherals_Init)
    R_LED                                    0x08002c19   Thumb Code   430  led.o(i.R_LED)
    RcData                                   0x08002dd1   Thumb Code  2270  rcdata.o(i.RcData)
    Read_Cali_Data                           0x080036c5   Thumb Code   244  calibration.o(i.Read_Cali_Data)
    Read_M1_Encoder                          0x080037d9   Thumb Code    72  encoder.o(i.Read_M1_Encoder)
    Read_M2_Encoder                          0x08003825   Thumb Code    76  encoder.o(i.Read_M2_Encoder)
    SPI1_Init                                0x08003875   Thumb Code   182  mpu6500.o(i.SPI1_Init)
    SPI2_ReadWriteByte                       0x0800398d   Thumb Code    76  encoder.o(i.SPI2_ReadWriteByte)
    SVC_Handler                              0x080039dd   Thumb Code     2  at32f413_int.o(i.SVC_Handler)
    SpeedCompute                             0x080039e1   Thumb Code   174  control.o(i.SpeedCompute)
    SysTick_Handler                          0x08003a9d   Thumb Code     2  at32f413_int.o(i.SysTick_Handler)
    SystemInit                               0x08003aa1   Thumb Code   100  system_at32f413.o(i.SystemInit)
    TIM1_Init                                0x08003b11   Thumb Code   278  timer.o(i.TIM1_Init)
    TIM2_Init                                0x08003c39   Thumb Code   198  timer.o(i.TIM2_Init)
    TIM5_Init                                0x08003d19   Thumb Code    84  timer.o(i.TIM5_Init)
    TIM8_Init                                0x08003d7d   Thumb Code   278  timer.o(i.TIM8_Init)
    TLE5012B_Init                            0x08003ea5   Thumb Code   194  encoder.o(i.TLE5012B_Init)
    TMR1_TRG_HALL_TMR11_IRQHandler           0x08003f79   Thumb Code    12  timer.o(i.TMR1_TRG_HALL_TMR11_IRQHandler)
    TMR5_GLOBAL_IRQHandler                   0x08003f89   Thumb Code    28  timer.o(i.TMR5_GLOBAL_IRQHandler)
    TMR8_TRG_HALL_IRQHandler                 0x08003fad   Thumb Code    12  timer.o(i.TMR8_TRG_HALL_IRQHandler)
    TriggerADC_Init                          0x08003fbd   Thumb Code   418  adc.o(i.TriggerADC_Init)
    UART1_SendDataDMA                        0x08004179   Thumb Code    52  usart.o(i.UART1_SendDataDMA)
    UART2_SendDataDMA                        0x080041b9   Thumb Code    52  usart.o(i.UART2_SendDataDMA)
    USART1_IRQHandler                        0x080041f9   Thumb Code    80  usart.o(i.USART1_IRQHandler)
    USART1_init                              0x0800425d   Thumb Code   186  usart.o(i.USART1_init)
    USART2_IRQHandler                        0x08004329   Thumb Code    80  usart.o(i.USART2_IRQHandler)
    USART2_init                              0x0800438d   Thumb Code   200  usart.o(i.USART2_init)
    UsageFault_Handler                       0x0800446d   Thumb Code     4  at32f413_int.o(i.UsageFault_Handler)
    UsartPrint                               0x08004471   Thumb Code   276  debug.o(i.UsartPrint)
    WS2812_init                              0x08004599   Thumb Code   280  ws2812.o(i.WS2812_init)
    Write_Cali_Data                          0x080046c9   Thumb Code    88  calibration.o(i.Write_Cali_Data)
    __ARM_fpclassifyf                        0x0800472d   Thumb Code    38  fpclassifyf.o(i.__ARM_fpclassifyf)
    __hardfp_atan2f                          0x08004755   Thumb Code   502  atan2f.o(i.__hardfp_atan2f)
    __hardfp_cosf                            0x080049a5   Thumb Code   280  cosf.o(i.__hardfp_cosf)
    __hardfp_fabs                            0x08004af5   Thumb Code    20  fabs.o(i.__hardfp_fabs)
    __hardfp_sinf                            0x08004b09   Thumb Code   344  sinf.o(i.__hardfp_sinf)
    __mathlib_flt_infnan                     0x08004c99   Thumb Code     6  funder.o(i.__mathlib_flt_infnan)
    __mathlib_flt_infnan2                    0x08004c9f   Thumb Code     6  funder.o(i.__mathlib_flt_infnan2)
    __mathlib_flt_invalid                    0x08004ca5   Thumb Code    10  funder.o(i.__mathlib_flt_invalid)
    __mathlib_flt_underflow                  0x08004cb5   Thumb Code    10  funder.o(i.__mathlib_flt_underflow)
    __mathlib_rredf2                         0x08004cc5   Thumb Code   316  rredf.o(i.__mathlib_rredf2)
    adc_base_config                          0x08004e19   Thumb Code    44  at32f413_adc.o(i.adc_base_config)
    adc_base_default_para_init               0x08004e45   Thumb Code    14  at32f413_adc.o(i.adc_base_default_para_init)
    adc_calibration_init                     0x08004e53   Thumb Code    12  at32f413_adc.o(i.adc_calibration_init)
    adc_calibration_init_status_get          0x08004e5f   Thumb Code    18  at32f413_adc.o(i.adc_calibration_init_status_get)
    adc_calibration_start                    0x08004e71   Thumb Code    12  at32f413_adc.o(i.adc_calibration_start)
    adc_calibration_status_get               0x08004e7d   Thumb Code    18  at32f413_adc.o(i.adc_calibration_status_get)
    adc_dma_mode_enable                      0x08004e8f   Thumb Code    10  at32f413_adc.o(i.adc_dma_mode_enable)
    adc_enable                               0x08004e99   Thumb Code    10  at32f413_adc.o(i.adc_enable)
    adc_flag_clear                           0x08004ea3   Thumb Code     6  at32f413_adc.o(i.adc_flag_clear)
    adc_flag_get                             0x08004ea9   Thumb Code    16  at32f413_adc.o(i.adc_flag_get)
    adc_interrupt_enable                     0x08004eb9   Thumb Code    22  at32f413_adc.o(i.adc_interrupt_enable)
    adc_preempt_auto_mode_enable             0x08004ecf   Thumb Code    10  at32f413_adc.o(i.adc_preempt_auto_mode_enable)
    adc_preempt_channel_length_set           0x08004ed9   Thumb Code    12  at32f413_adc.o(i.adc_preempt_channel_length_set)
    adc_preempt_channel_set                  0x08004ee5   Thumb Code   290  at32f413_adc.o(i.adc_preempt_channel_set)
    adc_preempt_conversion_trigger_set       0x08005007   Thumb Code    52  at32f413_adc.o(i.adc_preempt_conversion_trigger_set)
    crm_adc_clock_div_set                    0x0800503d   Thumb Code    28  at32f413_crm.o(i.crm_adc_clock_div_set)
    crm_ahb_div_set                          0x0800505d   Thumb Code    14  at32f413_crm.o(i.crm_ahb_div_set)
    crm_apb1_div_set                         0x08005071   Thumb Code    14  at32f413_crm.o(i.crm_apb1_div_set)
    crm_apb2_div_set                         0x08005085   Thumb Code    14  at32f413_crm.o(i.crm_apb2_div_set)
    crm_auto_step_mode_enable                0x08005099   Thumb Code    34  at32f413_crm.o(i.crm_auto_step_mode_enable)
    crm_clock_source_enable                  0x080050c1   Thumb Code    90  at32f413_crm.o(i.crm_clock_source_enable)
    crm_clocks_freq_get                      0x08005121   Thumb Code   242  at32f413_crm.o(i.crm_clocks_freq_get)
    crm_flag_get                             0x0800523d   Thumb Code    42  at32f413_crm.o(i.crm_flag_get)
    crm_hext_stable_wait                     0x0800526d   Thumb Code    46  at32f413_crm.o(i.crm_hext_stable_wait)
    crm_periph_clock_enable                  0x0800529d   Thumb Code    62  at32f413_crm.o(i.crm_periph_clock_enable)
    crm_pll_config                           0x080052e1   Thumb Code   104  at32f413_crm.o(i.crm_pll_config)
    crm_reset                                0x0800534d   Thumb Code    80  at32f413_crm.o(i.crm_reset)
    crm_sysclk_switch                        0x080053a5   Thumb Code    14  at32f413_crm.o(i.crm_sysclk_switch)
    crm_sysclk_switch_status_get             0x080053b9   Thumb Code    10  at32f413_crm.o(i.crm_sysclk_switch_status_get)
    delay_init                               0x080053c9   Thumb Code    40  delay.o(i.delay_init)
    delay_ms                                 0x080053f9   Thumb Code    56  delay.o(i.delay_ms)
    dma_channel_enable                       0x08005435   Thumb Code    10  at32f413_dma.o(i.dma_channel_enable)
    dma_data_number_get                      0x0800543f   Thumb Code     8  at32f413_dma.o(i.dma_data_number_get)
    dma_data_number_set                      0x08005447   Thumb Code     4  at32f413_dma.o(i.dma_data_number_set)
    dma_default_para_init                    0x0800544b   Thumb Code    24  at32f413_dma.o(i.dma_default_para_init)
    dma_flag_clear                           0x08005465   Thumb Code    22  at32f413_dma.o(i.dma_flag_clear)
    dma_flag_get                             0x08005485   Thumb Code    36  at32f413_dma.o(i.dma_flag_get)
    dma_flexible_config                      0x080054b1   Thumb Code   152  at32f413_dma.o(i.dma_flexible_config)
    dma_init                                 0x08005549   Thumb Code    92  at32f413_dma.o(i.dma_init)
    dma_interrupt_enable                     0x080055a5   Thumb Code    18  at32f413_dma.o(i.dma_interrupt_enable)
    dma_reset                                0x080055b9   Thumb Code   102  at32f413_dma.o(i.dma_reset)
    flash_flag_clear                         0x08005635   Thumb Code    38  at32f413_flash.o(i.flash_flag_clear)
    flash_halfword_program                   0x08005661   Thumb Code   112  at32f413_flash.o(i.flash_halfword_program)
    flash_lock                               0x080056d5   Thumb Code    16  at32f413_flash.o(i.flash_lock)
    flash_operation_status_get               0x080056e9   Thumb Code    48  at32f413_flash.o(i.flash_operation_status_get)
    flash_operation_wait_for                 0x0800571d   Thumb Code    36  at32f413_flash.o(i.flash_operation_wait_for)
    flash_read                               0x08005741   Thumb Code    26  flash.o(i.flash_read)
    flash_sector_erase                       0x0800575d   Thumb Code   136  at32f413_flash.o(i.flash_sector_erase)
    flash_spim_operation_status_get          0x080057e9   Thumb Code    48  at32f413_flash.o(i.flash_spim_operation_status_get)
    flash_spim_operation_wait_for            0x0800581d   Thumb Code    36  at32f413_flash.o(i.flash_spim_operation_wait_for)
    flash_unlock                             0x08005841   Thumb Code    12  at32f413_flash.o(i.flash_unlock)
    flash_write                              0x08005859   Thumb Code   284  flash.o(i.flash_write)
    flash_write_nocheck                      0x08005979   Thumb Code    56  flash.o(i.flash_write_nocheck)
    gpio_bits_reset                          0x080059b1   Thumb Code     4  at32f413_gpio.o(i.gpio_bits_reset)
    gpio_bits_set                            0x080059b5   Thumb Code     4  at32f413_gpio.o(i.gpio_bits_set)
    gpio_default_para_init                   0x080059b9   Thumb Code    22  at32f413_gpio.o(i.gpio_default_para_init)
    gpio_init                                0x080059cf   Thumb Code   168  at32f413_gpio.o(i.gpio_init)
    gpio_input_data_bit_read                 0x08005a77   Thumb Code    18  at32f413_gpio.o(i.gpio_input_data_bit_read)
    gpio_pin_remap_config                    0x08005a89   Thumb Code    70  at32f413_gpio.o(i.gpio_pin_remap_config)
    main                                     0x08005ad5   Thumb Code    22  main.o(i.main)
    nvic_irq_enable                          0x08005aed   Thumb Code   190  at32f413_misc.o(i.nvic_irq_enable)
    nvic_priority_group_config               0x08005bb5   Thumb Code    32  at32f413_misc.o(i.nvic_priority_group_config)
    parameters_Init                          0x08005bdd   Thumb Code  1156  control.o(i.parameters_Init)
    send_Data                                0x08006069   Thumb Code   220  ws2812.o(i.send_Data)
    spi_default_para_init                    0x0800614d   Thumb Code    22  at32f413_spi.o(i.spi_default_para_init)
    spi_enable                               0x08006163   Thumb Code    10  at32f413_spi.o(i.spi_enable)
    spi_i2s_data_receive                     0x0800616d   Thumb Code     8  at32f413_spi.o(i.spi_i2s_data_receive)
    spi_i2s_data_transmit                    0x08006175   Thumb Code     4  at32f413_spi.o(i.spi_i2s_data_transmit)
    spi_i2s_flag_get                         0x08006179   Thumb Code    16  at32f413_spi.o(i.spi_i2s_flag_get)
    spi_init                                 0x08006189   Thumb Code   292  at32f413_spi.o(i.spi_init)
    svpwm                                    0x080062ad   Thumb Code  1202  at32f413rc_foc_lib.o(i.svpwm)
    system_clock_config                      0x08006769   Thumb Code   106  at32f413_clock.o(i.system_clock_config)
    system_core_clock_update                 0x080067d5   Thumb Code   206  system_at32f413.o(i.system_core_clock_update)
    systick_clock_source_config              0x080068c5   Thumb Code    40  at32f413_misc.o(i.systick_clock_source_config)
    tmr_base_init                            0x080068ed   Thumb Code    16  at32f413_tmr.o(i.tmr_base_init)
    tmr_brkdt_config                         0x080068fd   Thumb Code    72  at32f413_tmr.o(i.tmr_brkdt_config)
    tmr_brkdt_default_para_init              0x08006945   Thumb Code    18  at32f413_tmr.o(i.tmr_brkdt_default_para_init)
    tmr_channel_value_set                    0x08006957   Thumb Code    40  at32f413_tmr.o(i.tmr_channel_value_set)
    tmr_clock_source_div_set                 0x0800697f   Thumb Code    10  at32f413_tmr.o(i.tmr_clock_source_div_set)
    tmr_cnt_dir_set                          0x08006989   Thumb Code    10  at32f413_tmr.o(i.tmr_cnt_dir_set)
    tmr_counter_enable                       0x08006993   Thumb Code    10  at32f413_tmr.o(i.tmr_counter_enable)
    tmr_dma_request_enable                   0x0800699d   Thumb Code    22  at32f413_tmr.o(i.tmr_dma_request_enable)
    tmr_flag_clear                           0x080069b3   Thumb Code     6  at32f413_tmr.o(i.tmr_flag_clear)
    tmr_flag_get                             0x080069b9   Thumb Code    18  at32f413_tmr.o(i.tmr_flag_get)
    tmr_interrupt_enable                     0x080069cb   Thumb Code    22  at32f413_tmr.o(i.tmr_interrupt_enable)
    tmr_output_channel_buffer_enable         0x080069e1   Thumb Code    66  at32f413_tmr.o(i.tmr_output_channel_buffer_enable)
    tmr_output_channel_config                0x08006a23   Thumb Code   416  at32f413_tmr.o(i.tmr_output_channel_config)
    tmr_output_default_para_init             0x08006bc3   Thumb Code    18  at32f413_tmr.o(i.tmr_output_default_para_init)
    tmr_output_enable                        0x08006bd5   Thumb Code    10  at32f413_tmr.o(i.tmr_output_enable)
    tmr_period_buffer_enable                 0x08006bdf   Thumb Code    10  at32f413_tmr.o(i.tmr_period_buffer_enable)
    usart_dma_receiver_enable                0x08006be9   Thumb Code    10  at32f413_usart.o(i.usart_dma_receiver_enable)
    usart_dma_transmitter_enable             0x08006bf3   Thumb Code    10  at32f413_usart.o(i.usart_dma_transmitter_enable)
    usart_enable                             0x08006bfd   Thumb Code    10  at32f413_usart.o(i.usart_enable)
    usart_flag_clear                         0x08006c07   Thumb Code    18  at32f413_usart.o(i.usart_flag_clear)
    usart_flag_get                           0x08006c19   Thumb Code    16  at32f413_usart.o(i.usart_flag_get)
    usart_init                               0x08006c29   Thumb Code   102  at32f413_usart.o(i.usart_init)
    usart_interrupt_enable                   0x08006c95   Thumb Code    54  at32f413_usart.o(i.usart_interrupt_enable)
    usart_receiver_enable                    0x08006ccb   Thumb Code    10  at32f413_usart.o(i.usart_receiver_enable)
    usart_transmitter_enable                 0x08006cd5   Thumb Code    10  at32f413_usart.o(i.usart_transmitter_enable)
    __fpl_dcmp_Inf                           0x08006cdf   Thumb Code    24  dcmpi.o(x$fpl$dcmpinf)
    __aeabi_cdcmple                          0x08006cf9   Thumb Code     0  dleqf.o(x$fpl$dleqf)
    _dcmple                                  0x08006cf9   Thumb Code   120  dleqf.o(x$fpl$dleqf)
    __fpl_dcmple_InfNaN                      0x08006d5b   Thumb Code     0  dleqf.o(x$fpl$dleqf)
    __fpl_dnaninf                            0x08006d71   Thumb Code   156  dnaninf.o(x$fpl$dnaninf)
    __fpl_dretinf                            0x08006e0d   Thumb Code    12  dretinf.o(x$fpl$dretinf)
    __aeabi_cdrcmple                         0x08006e19   Thumb Code     0  drleqf.o(x$fpl$drleqf)
    _drcmple                                 0x08006e19   Thumb Code   108  drleqf.o(x$fpl$drleqf)
    __aeabi_f2d                              0x08006e85   Thumb Code     0  f2d.o(x$fpl$f2d)
    _f2d                                     0x08006e85   Thumb Code    86  f2d.o(x$fpl$f2d)
    __fpl_fnaninf                            0x08006edb   Thumb Code   140  fnaninf.o(x$fpl$fnaninf)
    _fp_init                                 0x08006f67   Thumb Code    10  fpinit.o(x$fpl$fpinit)
    __fplib_config_fpu_vfp                   0x08006f6f   Thumb Code     0  fpinit.o(x$fpl$fpinit)
    __fplib_config_pureend_doubles           0x08006f6f   Thumb Code     0  fpinit.o(x$fpl$fpinit)
    __I$use$fp                               0x08006f70   Number         0  usenofp.o(x$fpl$usenofp)
    Music_data                               0x08006fa8   Data       83470  at32f413rc_foc_lib.o(.constdata)
    Region$$Table$$Base                      0x0801b5d8   Number         0  anon$$obj.o(Region$$Table)
    Region$$Table$$Limit                     0x0801b5f8   Number         0  anon$$obj.o(Region$$Table)
    system_core_clock                        0x20000000   Data           4  system_at32f413.o(.data)
    TIM_Flag                                 0x20000004   Data           1  timer.o(.data)
    WHO_AM_I                                 0x20000005   Data           1  mpu6500.o(.data)
    get_decode_data                          0x20000006   Data          66  debug.o(.data)
    test_cnt                                 0x20000048   Data           2  debug.o(.data)
    IMU_flag                                 0x2000004a   Data           1  ahrs.o(.data)
    R_cnt                                    0x2000004c   Data           2  led.o(.data)
    G_cnt                                    0x2000004e   Data           2  led.o(.data)
    Key1_Count                               0x20000050   Data           2  key.o(.data)
    KeyFlag                                  0x20000052   Data           1  key.o(.data)
    KeyCnt                                   0x20000054   Data           2  key.o(.data)
    CarCaliCnt                               0x20000056   Data           2  key.o(.data)
    seconds                                  0x20000058   Data           1  app.o(.data)
    Volt16                                   0x2000005a   Data           2  app.o(.data)
    txdata                                   0x2000005c   Data           4  app.o(.data)
    RGB_Flag                                 0x20000060   Data           1  app.o(.data)
    LowBattery                               0x20000061   Data           1  app.o(.data)
    BatteryFlag                              0x20000062   Data           1  app.o(.data)
    LD1                                      0x20000063   Data           1  app.o(.data)
    LD2                                      0x20000064   Data           1  app.o(.data)
    LD3                                      0x20000065   Data           1  app.o(.data)
    RGB_LD                                   0x20000068   Data           4  app.o(.data)
    RGB_Cnt                                  0x2000006c   Data           2  app.o(.data)
    Protection                               0x2000006e   Data           1  calibration.o(.data)
    ControlOut_L                             0x20000070   Data           4  control.o(.data)
    ControlOut_R                             0x20000074   Data           4  control.o(.data)
    CarSpeedCnt                              0x20000078   Data           1  control.o(.data)
    Stall_cnt                                0x2000007a   Data           2  control.o(.data)
    M1SpeedCnt                               0x2000007c   Data           1  control.o(.data)
    M2SpeedCnt                               0x2000007d   Data           1  control.o(.data)
    CH0                                      0x2000007e   Data           2  rcdata.o(.data)
    CH1                                      0x20000080   Data           2  rcdata.o(.data)
    CH2                                      0x20000082   Data           2  rcdata.o(.data)
    CH3                                      0x20000084   Data           2  rcdata.o(.data)
    BLE_Cnt                                  0x20000086   Data           2  rcdata.o(.data)
    Rc_flag                                  0x20000088   Data           1  rcdata.o(.data)
    U1_IDLE_Flag                             0x2000008e   Data           1  usart.o(.data)
    U2_IDLE_Flag                             0x2000008f   Data           1  usart.o(.data)
    Tx1_Flag                                 0x20000090   Data           1  usart.o(.data)
    Tx2_Flag                                 0x20000091   Data           1  usart.o(.data)
    WS2812_SendFlag                          0x20000092   Data           1  ws2812.o(.data)
    Cubli_Cali_Status                        0x20000094   Data           1  at32f413rc_foc_lib.o(.data)
    Music_flag                               0x20000095   Data           1  at32f413rc_foc_lib.o(.data)
    Music_flag1                              0x20000096   Data           1  at32f413rc_foc_lib.o(.data)
    Music_flag2                              0x20000097   Data           1  at32f413rc_foc_lib.o(.data)
    Music_flag3                              0x20000098   Data           1  at32f413rc_foc_lib.o(.data)
    Music_cnt1                               0x2000009c   Data           4  at32f413rc_foc_lib.o(.data)
    Music_cnt2                               0x200000a0   Data           4  at32f413rc_foc_lib.o(.data)
    Music_cnt3                               0x200000a4   Data           4  at32f413rc_foc_lib.o(.data)
    Music_len                                0x200000a8   Data           2  at32f413rc_foc_lib.o(.data)
    M1_Vflag                                 0x200000aa   Data           1  at32f413rc_foc_lib.o(.data)
    M2_Vflag                                 0x200000ab   Data           1  at32f413rc_foc_lib.o(.data)
    Music_dc                                 0x200000ac   Data           4  at32f413rc_foc_lib.o(.data)
    Music_hz                                 0x200000b0   Data           4  at32f413rc_foc_lib.o(.data)
    M1_CurrOffset                            0x200000b4   Data           8  at32f413rc_foc_lib.o(.data)
    M2_CurrOffset                            0x200000bc   Data           8  at32f413rc_foc_lib.o(.data)
    M1_ADC_Ib                                0x200000c4   Data           4  at32f413rc_foc_lib.o(.data)
    M1_ADC_Ic                                0x200000c8   Data           4  at32f413rc_foc_lib.o(.data)
    M2_ADC_Ib                                0x200000cc   Data           4  at32f413rc_foc_lib.o(.data)
    M2_ADC_Ic                                0x200000d0   Data           4  at32f413rc_foc_lib.o(.data)
    M1_OffsetCnt                             0x200000d4   Data           2  at32f413rc_foc_lib.o(.data)
    M2_OffsetCnt                             0x200000d6   Data           2  at32f413rc_foc_lib.o(.data)
    M1_IQR_Cnt                               0x200000d8   Data           1  at32f413rc_foc_lib.o(.data)
    M2_IQR_Cnt                               0x200000d9   Data           1  at32f413rc_foc_lib.o(.data)
    M1_Cali_Cnt                              0x200000da   Data           2  at32f413rc_foc_lib.o(.data)
    M2_Cali_Cnt                              0x200000dc   Data           2  at32f413rc_foc_lib.o(.data)
    RC_Speed_flag                            0x200000de   Data           1  at32f413rc_foc_lib.o(.data)
    crm_clocks_freq_struct                   0x200000e0   Data          20  timer.o(.bss)
    Print_data                               0x200000f4   Data          64  debug.o(.bss)
    debug_buff                               0x20000134   Data          72  debug.o(.bss)
    mpu6500                                  0x2000017c   Data         160  ahrs.o(.bss)
    IMU_data                                 0x2000021c   Data          14  ahrs.o(.bss)
    flash_buf                                0x2000022a   Data        2048  flash.o(.bss)
    CaliData                                 0x20000a2a   Data          46  calibration.o(.bss)
    u8_Cali_Data                             0x20000a58   Data         256  calibration.o(.bss)
    SpeedPID                                 0x20000b58   Data          56  control.o(.bss)
    TurnPID                                  0x20000b90   Data          52  control.o(.bss)
    UprightPID                               0x20000bc4   Data          52  control.o(.bss)
    GyroAnglePID                             0x20000bf8   Data          52  control.o(.bss)
    M1SpeedPID                               0x20000c2c   Data          52  control.o(.bss)
    M2SpeedPID                               0x20000c60   Data          52  control.o(.bss)
    M1CurrentIdPID                           0x20000c94   Data          52  control.o(.bss)
    M1CurrentIqPID                           0x20000cc8   Data          52  control.o(.bss)
    M2CurrentIdPID                           0x20000cfc   Data          52  control.o(.bss)
    M2CurrentIqPID                           0x20000d30   Data          52  control.o(.bss)
    M1_Encoder                               0x20000d64   Data          28  control.o(.bss)
    M2_Encoder                               0x20000d80   Data          28  control.o(.bss)
    Car                                      0x20000d9c   Data          36  control.o(.bss)
    FaultBit                                 0x20000dc0   Data          10  control.o(.bss)
    GET_USART1_Data                          0x20000dca   Data         128  control.o(.bss)
    GET_USART2_Data                          0x20000e4a   Data         128  control.o(.bss)
    Rc                                       0x20000ecc   Data          24  rcdata.o(.bss)
    Tx1_buffer                               0x20000ee4   Data         128  usart.o(.bss)
    Rx1_buffer                               0x20000f64   Data         128  usart.o(.bss)
    Tx2_buffer                               0x20000fe4   Data         128  usart.o(.bss)
    Rx2_buffer                               0x20001064   Data         128  usart.o(.bss)
    WS2812_Buffer                            0x200010e4   Data         386  ws2812.o(.bss)
    RGB_Data                                 0x20001268   Data          32  ws2812.o(.bss)
    M1_Foc                                   0x20001288   Data          72  at32f413rc_foc_lib.o(.bss)
    M2_Foc                                   0x200012d0   Data          72  at32f413rc_foc_lib.o(.bss)
    A1_Foc                                   0x20001318   Data          72  at32f413rc_foc_lib.o(.bss)
    A2_Foc                                   0x20001360   Data          72  at32f413rc_foc_lib.o(.bss)
    __libspace_start                         0x200013a8   Data          96  libspace.o(.bss)
    __temporary_stack_top$libspace           0x20001408   Data           0  libspace.o(.bss)



==============================================================================

Memory Map of the image

  Image Entry point : 0x08000171

  Load Region LR_IROM1 (Base: 0x08000000, Size: 0x0001b6d8, Max: 0x00040000, ABSOLUTE)

    Execution Region ER_IROM1 (Exec base: 0x08000000, Load base: 0x08000000, Size: 0x0001b5f8, Max: 0x00040000, ABSOLUTE)

    Exec Addr    Load Addr    Size         Type   Attr      Idx    E Section Name        Object

    0x08000000   0x08000000   0x00000170   Data   RO          359    RESET               startup_at32f413.o
    0x08000170   0x08000170   0x00000008   Code   RO         3073  * !!!main             c_w.l(__main.o)
    0x08000178   0x08000178   0x00000034   Code   RO         3315    !!!scatter          c_w.l(__scatter.o)
    0x080001ac   0x080001ac   0x0000001a   Code   RO         3317    !!handler_copy      c_w.l(__scatter_copy.o)
    0x080001c6   0x080001c6   0x00000002   PAD
    0x080001c8   0x080001c8   0x0000001c   Code   RO         3319    !!handler_zi        c_w.l(__scatter_zi.o)
    0x080001e4   0x080001e4   0x00000002   Code   RO         3188    .ARM.Collect$$libinit$$00000000  c_w.l(libinit.o)
    0x080001e6   0x080001e6   0x00000004   Code   RO         3191    .ARM.Collect$$libinit$$00000001  c_w.l(libinit2.o)
    0x080001ea   0x080001ea   0x00000000   Code   RO         3194    .ARM.Collect$$libinit$$00000004  c_w.l(libinit2.o)
    0x080001ea   0x080001ea   0x00000000   Code   RO         3197    .ARM.Collect$$libinit$$0000000A  c_w.l(libinit2.o)
    0x080001ea   0x080001ea   0x00000000   Code   RO         3199    .ARM.Collect$$libinit$$0000000C  c_w.l(libinit2.o)
    0x080001ea   0x080001ea   0x00000000   Code   RO         3201    .ARM.Collect$$libinit$$0000000E  c_w.l(libinit2.o)
    0x080001ea   0x080001ea   0x00000000   Code   RO         3204    .ARM.Collect$$libinit$$00000011  c_w.l(libinit2.o)
    0x080001ea   0x080001ea   0x00000000   Code   RO         3206    .ARM.Collect$$libinit$$00000013  c_w.l(libinit2.o)
    0x080001ea   0x080001ea   0x00000000   Code   RO         3208    .ARM.Collect$$libinit$$00000015  c_w.l(libinit2.o)
    0x080001ea   0x080001ea   0x00000000   Code   RO         3210    .ARM.Collect$$libinit$$00000017  c_w.l(libinit2.o)
    0x080001ea   0x080001ea   0x00000000   Code   RO         3212    .ARM.Collect$$libinit$$00000019  c_w.l(libinit2.o)
    0x080001ea   0x080001ea   0x00000000   Code   RO         3214    .ARM.Collect$$libinit$$0000001B  c_w.l(libinit2.o)
    0x080001ea   0x080001ea   0x00000000   Code   RO         3216    .ARM.Collect$$libinit$$0000001D  c_w.l(libinit2.o)
    0x080001ea   0x080001ea   0x00000000   Code   RO         3218    .ARM.Collect$$libinit$$0000001F  c_w.l(libinit2.o)
    0x080001ea   0x080001ea   0x00000000   Code   RO         3220    .ARM.Collect$$libinit$$00000021  c_w.l(libinit2.o)
    0x080001ea   0x080001ea   0x00000000   Code   RO         3222    .ARM.Collect$$libinit$$00000023  c_w.l(libinit2.o)
    0x080001ea   0x080001ea   0x00000000   Code   RO         3224    .ARM.Collect$$libinit$$00000025  c_w.l(libinit2.o)
    0x080001ea   0x080001ea   0x00000000   Code   RO         3228    .ARM.Collect$$libinit$$0000002C  c_w.l(libinit2.o)
    0x080001ea   0x080001ea   0x00000000   Code   RO         3230    .ARM.Collect$$libinit$$0000002E  c_w.l(libinit2.o)
    0x080001ea   0x080001ea   0x00000000   Code   RO         3232    .ARM.Collect$$libinit$$00000030  c_w.l(libinit2.o)
    0x080001ea   0x080001ea   0x00000000   Code   RO         3234    .ARM.Collect$$libinit$$00000032  c_w.l(libinit2.o)
    0x080001ea   0x080001ea   0x00000002   Code   RO         3235    .ARM.Collect$$libinit$$00000033  c_w.l(libinit2.o)
    0x080001ec   0x080001ec   0x00000002   Code   RO         3255    .ARM.Collect$$libshutdown$$00000000  c_w.l(libshutdown.o)
    0x080001ee   0x080001ee   0x00000000   Code   RO         3268    .ARM.Collect$$libshutdown$$00000002  c_w.l(libshutdown2.o)
    0x080001ee   0x080001ee   0x00000000   Code   RO         3270    .ARM.Collect$$libshutdown$$00000004  c_w.l(libshutdown2.o)
    0x080001ee   0x080001ee   0x00000000   Code   RO         3273    .ARM.Collect$$libshutdown$$00000007  c_w.l(libshutdown2.o)
    0x080001ee   0x080001ee   0x00000000   Code   RO         3276    .ARM.Collect$$libshutdown$$0000000A  c_w.l(libshutdown2.o)
    0x080001ee   0x080001ee   0x00000000   Code   RO         3278    .ARM.Collect$$libshutdown$$0000000C  c_w.l(libshutdown2.o)
    0x080001ee   0x080001ee   0x00000000   Code   RO         3281    .ARM.Collect$$libshutdown$$0000000F  c_w.l(libshutdown2.o)
    0x080001ee   0x080001ee   0x00000002   Code   RO         3282    .ARM.Collect$$libshutdown$$00000010  c_w.l(libshutdown2.o)
    0x080001f0   0x080001f0   0x00000000   Code   RO         3123    .ARM.Collect$$rtentry$$00000000  c_w.l(__rtentry.o)
    0x080001f0   0x080001f0   0x00000000   Code   RO         3157    .ARM.Collect$$rtentry$$00000002  c_w.l(__rtentry2.o)
    0x080001f0   0x080001f0   0x00000006   Code   RO         3169    .ARM.Collect$$rtentry$$00000004  c_w.l(__rtentry4.o)
    0x080001f6   0x080001f6   0x00000000   Code   RO         3159    .ARM.Collect$$rtentry$$00000009  c_w.l(__rtentry2.o)
    0x080001f6   0x080001f6   0x00000004   Code   RO         3160    .ARM.Collect$$rtentry$$0000000A  c_w.l(__rtentry2.o)
    0x080001fa   0x080001fa   0x00000000   Code   RO         3162    .ARM.Collect$$rtentry$$0000000C  c_w.l(__rtentry2.o)
    0x080001fa   0x080001fa   0x00000008   Code   RO         3163    .ARM.Collect$$rtentry$$0000000D  c_w.l(__rtentry2.o)
    0x08000202   0x08000202   0x00000002   Code   RO         3189    .ARM.Collect$$rtexit$$00000000  c_w.l(rtexit.o)
    0x08000204   0x08000204   0x00000000   Code   RO         3237    .ARM.Collect$$rtexit$$00000002  c_w.l(rtexit2.o)
    0x08000204   0x08000204   0x00000004   Code   RO         3238    .ARM.Collect$$rtexit$$00000003  c_w.l(rtexit2.o)
    0x08000208   0x08000208   0x00000006   Code   RO         3239    .ARM.Collect$$rtexit$$00000004  c_w.l(rtexit2.o)
    0x0800020e   0x0800020e   0x00000002   PAD
    0x08000210   0x08000210   0x00000040   Code   RO          360    .text               startup_at32f413.o
    0x08000250   0x08000250   0x0000008a   Code   RO         3065    .text               c_w.l(rt_memcpy_v6.o)
    0x080002da   0x080002da   0x00000044   Code   RO         3067    .text               c_w.l(rt_memclr.o)
    0x0800031e   0x0800031e   0x0000004e   Code   RO         3069    .text               c_w.l(rt_memclr_w.o)
    0x0800036c   0x0800036c   0x00000006   Code   RO         3071    .text               c_w.l(heapauxi.o)
    0x08000372   0x08000372   0x00000016   Code   RO         3124    .text               c_w.l(_rserrno.o)
    0x08000388   0x08000388   0x00000064   Code   RO         3126    .text               c_w.l(rt_memcpy_w.o)
    0x080003ec   0x080003ec   0x00000008   Code   RO         3174    .text               c_w.l(rt_errno_addr_intlibspace.o)
    0x080003f4   0x080003f4   0x00000008   Code   RO         3176    .text               c_w.l(libspace.o)
    0x080003fc   0x080003fc   0x0000004a   Code   RO         3179    .text               c_w.l(sys_stackheap_outer.o)
    0x08000446   0x08000446   0x00000012   Code   RO         3181    .text               c_w.l(exit.o)
    0x08000458   0x08000458   0x0000000c   Code   RO         3247    .text               c_w.l(sys_exit.o)
    0x08000464   0x08000464   0x00000002   Code   RO         3258    .text               c_w.l(use_no_semi.o)
    0x08000466   0x08000466   0x00000000   Code   RO         3260    .text               c_w.l(indicate_semi.o)
    0x08000466   0x08000466   0x00000002   PAD
    0x08000468   0x08000468   0x00000044   Code   RO         2254    i.ADC1_2_IRQHandler  adc.o
    0x080004ac   0x080004ac   0x00000008   Code   RO         2255    i.ADC_Config        adc.o
    0x080004b4   0x080004b4   0x00000004   Code   RO          285    i.BusFault_Handler  at32f413_int.o
    0x080004b8   0x080004b8   0x00000190   Code   RO         2475    i.Car_Cali          calibration.o
    0x08000648   0x08000648   0x00000104   Code   RO         2913    i.Clarke_Park_Ipark  AT32F413RC_FOC_LIB.lib(at32f413rc_foc_lib.o)
    0x0800074c   0x0800074c   0x0000002c   Code   RO         2866    i.DMA1_Channel3_IRQHandler  ws2812.o
    0x08000778   0x08000778   0x00000020   Code   RO         2765    i.DMA1_Channel4_IRQHandler  usart.o
    0x08000798   0x08000798   0x00000020   Code   RO         2766    i.DMA1_Channel7_IRQHandler  usart.o
    0x080007b8   0x080007b8   0x00000002   Code   RO          286    i.DebugMon_Handler  at32f413_int.o
    0x080007ba   0x080007ba   0x00000002   PAD
    0x080007bc   0x080007bc   0x0000007c   Code   RO         2767    i.Dma_rx1           usart.o
    0x08000838   0x08000838   0x0000007c   Code   RO         2768    i.Dma_rx2           usart.o
    0x080008b4   0x080008b4   0x00000090   Code   RO         2769    i.Dma_tx1           usart.o
    0x08000944   0x08000944   0x00000090   Code   RO         2770    i.Dma_tx2           usart.o
    0x080009d4   0x080009d4   0x0000019c   Code   RO         2211    i.G_LED             led.o
    0x08000b70   0x08000b70   0x00000070   Code   RO         2258    i.Get_InputVolt     adc.o
    0x08000be0   0x08000be0   0x00000034   Code   RO         2070    i.Get_mpu6500       mpu6500.o
    0x08000c14   0x08000c14   0x000000bc   Code   RO         2333    i.Gpio_config       gpio_config.o
    0x08000cd0   0x08000cd0   0x00000028   Code   RO         2476    i.Gyro_Cali         calibration.o
    0x08000cf8   0x08000cf8   0x00000004   Code   RO          287    i.HardFault_Handler  at32f413_int.o
    0x08000cfc   0x08000cfc   0x000000bc   Code   RO         2071    i.IMU_Init          mpu6500.o
    0x08000db8   0x08000db8   0x0000002c   Code   RO         2072    i.IMU_Read_Reg      mpu6500.o
    0x08000de4   0x08000de4   0x0000002c   Code   RO         2073    i.IMU_Write_Reg     mpu6500.o
    0x08000e10   0x08000e10   0x000004e8   Code   RO         2172    i.IMU_handle        ahrs.o
    0x080012f8   0x080012f8   0x00000048   Code   RO         2361    i.Key_Init          key.o
    0x08001340   0x08001340   0x00000180   Code   RO         2362    i.Key_Scan          key.o
    0x080014c0   0x080014c0   0x00000094   Code   RO         2212    i.LED_Init          led.o
    0x08001554   0x08001554   0x00000058   Code   RO         2528    i.M1Current_ClosedLoop  control.o
    0x080015ac   0x080015ac   0x0000004c   Code   RO         2529    i.M1SpeedControl    control.o
    0x080015f8   0x080015f8   0x000000a4   Code   RO         2530    i.M1_Control        control.o
    0x0800169c   0x0800169c   0x00000530   Code   RO         2914    i.M1_FOC_handle     AT32F413RC_FOC_LIB.lib(at32f413rc_foc_lib.o)
    0x08001bcc   0x08001bcc   0x00000058   Code   RO         2531    i.M2Current_ClosedLoop  control.o
    0x08001c24   0x08001c24   0x0000004c   Code   RO         2532    i.M2SpeedControl    control.o
    0x08001c70   0x08001c70   0x000000a8   Code   RO         2533    i.M2_Control        control.o
    0x08001d18   0x08001d18   0x00000530   Code   RO         2915    i.M2_FOC_handle     AT32F413RC_FOC_LIB.lib(at32f413rc_foc_lib.o)
    0x08002248   0x08002248   0x00000004   Code   RO          288    i.MemManage_Handler  at32f413_int.o
    0x0800224c   0x0800224c   0x00000488   Code   RO         2534    i.MotorControl      control.o
    0x080026d4   0x080026d4   0x00000002   Code   RO          289    i.NMI_Handler       at32f413_int.o
    0x080026d6   0x080026d6   0x000000d8   Code   RO         2535    i.PID_Adjust        control.o
    0x080027ae   0x080027ae   0x00000002   PAD
    0x080027b0   0x080027b0   0x00000154   Code   RO         2916    i.PID_Adjust_S      AT32F413RC_FOC_LIB.lib(at32f413rc_foc_lib.o)
    0x08002904   0x08002904   0x0000011a   Code   RO         2536    i.PID_Adjust_T      control.o
    0x08002a1e   0x08002a1e   0x00000002   Code   RO          290    i.PendSV_Handler    at32f413_int.o
    0x08002a20   0x08002a20   0x000001f8   Code   RO         2444    i.Peripherals_Init  app.o
    0x08002c18   0x08002c18   0x000001b8   Code   RO         2213    i.R_LED             led.o
    0x08002dd0   0x08002dd0   0x000008f4   Code   RO         2633    i.RcData            rcdata.o
    0x080036c4   0x080036c4   0x00000114   Code   RO         2477    i.Read_Cali_Data    calibration.o
    0x080037d8   0x080037d8   0x0000004c   Code   RO         2670    i.Read_M1_Encoder   encoder.o
    0x08003824   0x08003824   0x00000050   Code   RO         2671    i.Read_M2_Encoder   encoder.o
    0x08003874   0x08003874   0x000000c4   Code   RO         2074    i.SPI1_Init         mpu6500.o
    0x08003938   0x08003938   0x00000054   Code   RO         2075    i.SPI1_ReadWriteByte  mpu6500.o
    0x0800398c   0x0800398c   0x00000050   Code   RO         2673    i.SPI2_ReadWriteByte  encoder.o
    0x080039dc   0x080039dc   0x00000002   Code   RO          291    i.SVC_Handler       at32f413_int.o
    0x080039de   0x080039de   0x00000002   PAD
    0x080039e0   0x080039e0   0x000000bc   Code   RO         2537    i.SpeedCompute      control.o
    0x08003a9c   0x08003a9c   0x00000002   Code   RO          292    i.SysTick_Handler   at32f413_int.o
    0x08003a9e   0x08003a9e   0x00000002   PAD
    0x08003aa0   0x08003aa0   0x00000070   Code   RO          221    i.SystemInit        system_at32f413.o
    0x08003b10   0x08003b10   0x00000128   Code   RO         1999    i.TIM1_Init         timer.o
    0x08003c38   0x08003c38   0x000000e0   Code   RO         2000    i.TIM2_Init         timer.o
    0x08003d18   0x08003d18   0x00000064   Code   RO         2001    i.TIM5_Init         timer.o
    0x08003d7c   0x08003d7c   0x00000128   Code   RO         2002    i.TIM8_Init         timer.o
    0x08003ea4   0x08003ea4   0x000000d4   Code   RO         2674    i.TLE5012B_Init     encoder.o
    0x08003f78   0x08003f78   0x00000010   Code   RO         2003    i.TMR1_TRG_HALL_TMR11_IRQHandler  timer.o
    0x08003f88   0x08003f88   0x00000024   Code   RO         2004    i.TMR5_GLOBAL_IRQHandler  timer.o
    0x08003fac   0x08003fac   0x00000010   Code   RO         2005    i.TMR8_TRG_HALL_IRQHandler  timer.o
    0x08003fbc   0x08003fbc   0x000001bc   Code   RO         2259    i.TriggerADC_Init   adc.o
    0x08004178   0x08004178   0x00000040   Code   RO         2771    i.UART1_SendDataDMA  usart.o
    0x080041b8   0x080041b8   0x00000040   Code   RO         2772    i.UART2_SendDataDMA  usart.o
    0x080041f8   0x080041f8   0x00000064   Code   RO         2773    i.USART1_IRQHandler  usart.o
    0x0800425c   0x0800425c   0x000000cc   Code   RO         2774    i.USART1_init       usart.o
    0x08004328   0x08004328   0x00000064   Code   RO         2775    i.USART2_IRQHandler  usart.o
    0x0800438c   0x0800438c   0x000000e0   Code   RO         2776    i.USART2_init       usart.o
    0x0800446c   0x0800446c   0x00000004   Code   RO          293    i.UsageFault_Handler  at32f413_int.o
    0x08004470   0x08004470   0x00000128   Code   RO         2132    i.UsartPrint        debug.o
    0x08004598   0x08004598   0x00000130   Code   RO         2867    i.WS2812_init       ws2812.o
    0x080046c8   0x080046c8   0x00000064   Code   RO         2478    i.Write_Cali_Data   calibration.o
    0x0800472c   0x0800472c   0x00000026   Code   RO         3137    i.__ARM_fpclassifyf  m_wm.l(fpclassifyf.o)
    0x08004752   0x08004752   0x00000002   PAD
    0x08004754   0x08004754   0x00000250   Code   RO         3081    i.__hardfp_atan2f   m_wm.l(atan2f.o)
    0x080049a4   0x080049a4   0x00000150   Code   RO         3093    i.__hardfp_cosf     m_wm.l(cosf.o)
    0x08004af4   0x08004af4   0x00000014   Code   RO         3105    i.__hardfp_fabs     m_wm.l(fabs.o)
    0x08004b08   0x08004b08   0x00000190   Code   RO         3111    i.__hardfp_sinf     m_wm.l(sinf.o)
    0x08004c98   0x08004c98   0x00000006   Code   RO         3140    i.__mathlib_flt_infnan  m_wm.l(funder.o)
    0x08004c9e   0x08004c9e   0x00000006   Code   RO         3141    i.__mathlib_flt_infnan2  m_wm.l(funder.o)
    0x08004ca4   0x08004ca4   0x00000010   Code   RO         3142    i.__mathlib_flt_invalid  m_wm.l(funder.o)
    0x08004cb4   0x08004cb4   0x00000010   Code   RO         3145    i.__mathlib_flt_underflow  m_wm.l(funder.o)
    0x08004cc4   0x08004cc4   0x00000154   Code   RO         3153    i.__mathlib_rredf2  m_wm.l(rredf.o)
    0x08004e18   0x08004e18   0x0000002c   Code   RO         1548    i.adc_base_config   at32f413_adc.o
    0x08004e44   0x08004e44   0x0000000e   Code   RO         1549    i.adc_base_default_para_init  at32f413_adc.o
    0x08004e52   0x08004e52   0x0000000c   Code   RO         1550    i.adc_calibration_init  at32f413_adc.o
    0x08004e5e   0x08004e5e   0x00000012   Code   RO         1551    i.adc_calibration_init_status_get  at32f413_adc.o
    0x08004e70   0x08004e70   0x0000000c   Code   RO         1552    i.adc_calibration_start  at32f413_adc.o
    0x08004e7c   0x08004e7c   0x00000012   Code   RO         1553    i.adc_calibration_status_get  at32f413_adc.o
    0x08004e8e   0x08004e8e   0x0000000a   Code   RO         1556    i.adc_dma_mode_enable  at32f413_adc.o
    0x08004e98   0x08004e98   0x0000000a   Code   RO         1557    i.adc_enable        at32f413_adc.o
    0x08004ea2   0x08004ea2   0x00000006   Code   RO         1558    i.adc_flag_clear    at32f413_adc.o
    0x08004ea8   0x08004ea8   0x00000010   Code   RO         1559    i.adc_flag_get      at32f413_adc.o
    0x08004eb8   0x08004eb8   0x00000016   Code   RO         1560    i.adc_interrupt_enable  at32f413_adc.o
    0x08004ece   0x08004ece   0x0000000a   Code   RO         1568    i.adc_preempt_auto_mode_enable  at32f413_adc.o
    0x08004ed8   0x08004ed8   0x0000000c   Code   RO         1569    i.adc_preempt_channel_length_set  at32f413_adc.o
    0x08004ee4   0x08004ee4   0x00000122   Code   RO         1570    i.adc_preempt_channel_set  at32f413_adc.o
    0x08005006   0x08005006   0x00000034   Code   RO         1572    i.adc_preempt_conversion_trigger_set  at32f413_adc.o
    0x0800503a   0x0800503a   0x00000002   PAD
    0x0800503c   0x0800503c   0x00000020   Code   RO          487    i.crm_adc_clock_div_set  at32f413_crm.o
    0x0800505c   0x0800505c   0x00000014   Code   RO          488    i.crm_ahb_div_set   at32f413_crm.o
    0x08005070   0x08005070   0x00000014   Code   RO          489    i.crm_apb1_div_set  at32f413_crm.o
    0x08005084   0x08005084   0x00000014   Code   RO          490    i.crm_apb2_div_set  at32f413_crm.o
    0x08005098   0x08005098   0x00000028   Code   RO          491    i.crm_auto_step_mode_enable  at32f413_crm.o
    0x080050c0   0x080050c0   0x00000060   Code   RO          497    i.crm_clock_source_enable  at32f413_crm.o
    0x08005120   0x08005120   0x0000011c   Code   RO          498    i.crm_clocks_freq_get  at32f413_crm.o
    0x0800523c   0x0800523c   0x00000030   Code   RO          500    i.crm_flag_get      at32f413_crm.o
    0x0800526c   0x0800526c   0x0000002e   Code   RO          502    i.crm_hext_stable_wait  at32f413_crm.o
    0x0800529a   0x0800529a   0x00000002   PAD
    0x0800529c   0x0800529c   0x00000044   Code   RO          509    i.crm_periph_clock_enable  at32f413_crm.o
    0x080052e0   0x080052e0   0x0000006c   Code   RO          512    i.crm_pll_config    at32f413_crm.o
    0x0800534c   0x0800534c   0x00000058   Code   RO          513    i.crm_reset         at32f413_crm.o
    0x080053a4   0x080053a4   0x00000014   Code   RO          516    i.crm_sysclk_switch  at32f413_crm.o
    0x080053b8   0x080053b8   0x00000010   Code   RO          517    i.crm_sysclk_switch_status_get  at32f413_crm.o
    0x080053c8   0x080053c8   0x00000030   Code   RO         2727    i.delay_init        delay.o
    0x080053f8   0x080053f8   0x0000003c   Code   RO         2728    i.delay_ms          delay.o
    0x08005434   0x08005434   0x0000000a   Code   RO         1470    i.dma_channel_enable  at32f413_dma.o
    0x0800543e   0x0800543e   0x00000008   Code   RO         1471    i.dma_data_number_get  at32f413_dma.o
    0x08005446   0x08005446   0x00000004   Code   RO         1472    i.dma_data_number_set  at32f413_dma.o
    0x0800544a   0x0800544a   0x00000018   Code   RO         1473    i.dma_default_para_init  at32f413_dma.o
    0x08005462   0x08005462   0x00000002   PAD
    0x08005464   0x08005464   0x00000020   Code   RO         1474    i.dma_flag_clear    at32f413_dma.o
    0x08005484   0x08005484   0x0000002c   Code   RO         1475    i.dma_flag_get      at32f413_dma.o
    0x080054b0   0x080054b0   0x00000098   Code   RO         1476    i.dma_flexible_config  at32f413_dma.o
    0x08005548   0x08005548   0x0000005c   Code   RO         1477    i.dma_init          at32f413_dma.o
    0x080055a4   0x080055a4   0x00000012   Code   RO         1478    i.dma_interrupt_enable  at32f413_dma.o
    0x080055b6   0x080055b6   0x00000002   PAD
    0x080055b8   0x080055b8   0x00000070   Code   RO         1479    i.dma_reset         at32f413_dma.o
    0x08005628   0x08005628   0x0000000a   Code   RO         2538    i.fabsf             control.o
    0x08005632   0x08005632   0x00000002   PAD
    0x08005634   0x08005634   0x0000002c   Code   RO         1776    i.flash_flag_clear  at32f413_flash.o
    0x08005660   0x08005660   0x00000074   Code   RO         1778    i.flash_halfword_program  at32f413_flash.o
    0x080056d4   0x080056d4   0x00000014   Code   RO         1781    i.flash_lock        at32f413_flash.o
    0x080056e8   0x080056e8   0x00000034   Code   RO         1782    i.flash_operation_status_get  at32f413_flash.o
    0x0800571c   0x0800571c   0x00000024   Code   RO         1783    i.flash_operation_wait_for  at32f413_flash.o
    0x08005740   0x08005740   0x0000001a   Code   RO         2401    i.flash_read        flash.o
    0x0800575a   0x0800575a   0x00000002   PAD
    0x0800575c   0x0800575c   0x0000008c   Code   RO         1784    i.flash_sector_erase  at32f413_flash.o
    0x080057e8   0x080057e8   0x00000034   Code   RO         1796    i.flash_spim_operation_status_get  at32f413_flash.o
    0x0800581c   0x0800581c   0x00000024   Code   RO         1797    i.flash_spim_operation_wait_for  at32f413_flash.o
    0x08005840   0x08005840   0x00000018   Code   RO         1801    i.flash_unlock      at32f413_flash.o
    0x08005858   0x08005858   0x00000120   Code   RO         2402    i.flash_write       flash.o
    0x08005978   0x08005978   0x00000038   Code   RO         2403    i.flash_write_nocheck  flash.o
    0x080059b0   0x080059b0   0x00000004   Code   RO          367    i.gpio_bits_reset   at32f413_gpio.o
    0x080059b4   0x080059b4   0x00000004   Code   RO          368    i.gpio_bits_set     at32f413_gpio.o
    0x080059b8   0x080059b8   0x00000016   Code   RO          370    i.gpio_default_para_init  at32f413_gpio.o
    0x080059ce   0x080059ce   0x000000a8   Code   RO          374    i.gpio_init         at32f413_gpio.o
    0x08005a76   0x08005a76   0x00000012   Code   RO          375    i.gpio_input_data_bit_read  at32f413_gpio.o
    0x08005a88   0x08005a88   0x0000004c   Code   RO          380    i.gpio_pin_remap_config  at32f413_gpio.o
    0x08005ad4   0x08005ad4   0x00000016   Code   RO            4    i.main              main.o
    0x08005aea   0x08005aea   0x00000002   PAD
    0x08005aec   0x08005aec   0x000000c8   Code   RO          711    i.nvic_irq_enable   at32f413_misc.o
    0x08005bb4   0x08005bb4   0x00000028   Code   RO          713    i.nvic_priority_group_config  at32f413_misc.o
    0x08005bdc   0x08005bdc   0x0000048c   Code   RO         2539    i.parameters_Init   control.o
    0x08006068   0x08006068   0x000000e4   Code   RO         2868    i.send_Data         ws2812.o
    0x0800614c   0x0800614c   0x00000016   Code   RO         1130    i.spi_default_para_init  at32f413_spi.o
    0x08006162   0x08006162   0x0000000a   Code   RO         1131    i.spi_enable        at32f413_spi.o
    0x0800616c   0x0800616c   0x00000008   Code   RO         1135    i.spi_i2s_data_receive  at32f413_spi.o
    0x08006174   0x08006174   0x00000004   Code   RO         1136    i.spi_i2s_data_transmit  at32f413_spi.o
    0x08006178   0x08006178   0x00000010   Code   RO         1140    i.spi_i2s_flag_get  at32f413_spi.o
    0x08006188   0x08006188   0x00000124   Code   RO         1143    i.spi_init          at32f413_spi.o
    0x080062ac   0x080062ac   0x000004bc   Code   RO         2917    i.svpwm             AT32F413RC_FOC_LIB.lib(at32f413rc_foc_lib.o)
    0x08006768   0x08006768   0x0000006a   Code   RO          258    i.system_clock_config  at32f413_clock.o
    0x080067d2   0x080067d2   0x00000002   PAD
    0x080067d4   0x080067d4   0x000000f0   Code   RO          222    i.system_core_clock_update  system_at32f413.o
    0x080068c4   0x080068c4   0x00000028   Code   RO          716    i.systick_clock_source_config  at32f413_misc.o
    0x080068ec   0x080068ec   0x00000010   Code   RO          775    i.tmr_base_init     at32f413_tmr.o
    0x080068fc   0x080068fc   0x00000048   Code   RO          776    i.tmr_brkdt_config  at32f413_tmr.o
    0x08006944   0x08006944   0x00000012   Code   RO          777    i.tmr_brkdt_default_para_init  at32f413_tmr.o
    0x08006956   0x08006956   0x00000028   Code   RO          783    i.tmr_channel_value_set  at32f413_tmr.o
    0x0800697e   0x0800697e   0x0000000a   Code   RO          784    i.tmr_clock_source_div_set  at32f413_tmr.o
    0x08006988   0x08006988   0x0000000a   Code   RO          785    i.tmr_cnt_dir_set   at32f413_tmr.o
    0x08006992   0x08006992   0x0000000a   Code   RO          786    i.tmr_counter_enable  at32f413_tmr.o
    0x0800699c   0x0800699c   0x00000016   Code   RO          792    i.tmr_dma_request_enable  at32f413_tmr.o
    0x080069b2   0x080069b2   0x00000006   Code   RO          798    i.tmr_flag_clear    at32f413_tmr.o
    0x080069b8   0x080069b8   0x00000012   Code   RO          799    i.tmr_flag_get      at32f413_tmr.o
    0x080069ca   0x080069ca   0x00000016   Code   RO          807    i.tmr_interrupt_enable  at32f413_tmr.o
    0x080069e0   0x080069e0   0x00000042   Code   RO          809    i.tmr_output_channel_buffer_enable  at32f413_tmr.o
    0x08006a22   0x08006a22   0x000001a0   Code   RO          810    i.tmr_output_channel_config  at32f413_tmr.o
    0x08006bc2   0x08006bc2   0x00000012   Code   RO          815    i.tmr_output_default_para_init  at32f413_tmr.o
    0x08006bd4   0x08006bd4   0x0000000a   Code   RO          816    i.tmr_output_enable  at32f413_tmr.o
    0x08006bde   0x08006bde   0x0000000a   Code   RO          819    i.tmr_period_buffer_enable  at32f413_tmr.o
    0x08006be8   0x08006be8   0x0000000a   Code   RO         1284    i.usart_dma_receiver_enable  at32f413_usart.o
    0x08006bf2   0x08006bf2   0x0000000a   Code   RO         1285    i.usart_dma_transmitter_enable  at32f413_usart.o
    0x08006bfc   0x08006bfc   0x0000000a   Code   RO         1286    i.usart_enable      at32f413_usart.o
    0x08006c06   0x08006c06   0x00000012   Code   RO         1287    i.usart_flag_clear  at32f413_usart.o
    0x08006c18   0x08006c18   0x00000010   Code   RO         1288    i.usart_flag_get    at32f413_usart.o
    0x08006c28   0x08006c28   0x0000006c   Code   RO         1290    i.usart_init        at32f413_usart.o
    0x08006c94   0x08006c94   0x00000036   Code   RO         1291    i.usart_interrupt_enable  at32f413_usart.o
    0x08006cca   0x08006cca   0x0000000a   Code   RO         1297    i.usart_receiver_enable  at32f413_usart.o
    0x08006cd4   0x08006cd4   0x0000000a   Code   RO         1304    i.usart_transmitter_enable  at32f413_usart.o
    0x08006cde   0x08006cde   0x00000018   Code   RO         3128    x$fpl$dcmpinf       fz_wm.l(dcmpi.o)
    0x08006cf6   0x08006cf6   0x00000002   PAD
    0x08006cf8   0x08006cf8   0x00000078   Code   RO         3075    x$fpl$dleqf         fz_wm.l(dleqf.o)
    0x08006d70   0x08006d70   0x0000009c   Code   RO         3130    x$fpl$dnaninf       fz_wm.l(dnaninf.o)
    0x08006e0c   0x08006e0c   0x0000000c   Code   RO         3132    x$fpl$dretinf       fz_wm.l(dretinf.o)
    0x08006e18   0x08006e18   0x0000006c   Code   RO         3077    x$fpl$drleqf        fz_wm.l(drleqf.o)
    0x08006e84   0x08006e84   0x00000056   Code   RO         3079    x$fpl$f2d           fz_wm.l(f2d.o)
    0x08006eda   0x08006eda   0x0000008c   Code   RO         3134    x$fpl$fnaninf       fz_wm.l(fnaninf.o)
    0x08006f66   0x08006f66   0x0000000a   Code   RO         3245    x$fpl$fpinit        fz_wm.l(fpinit.o)
    0x08006f70   0x08006f70   0x00000000   Code   RO         3136    x$fpl$usenofp       fz_wm.l(usenofp.o)
    0x08006f70   0x08006f70   0x00000010   Data   RO          223    .constdata          system_at32f413.o
    0x08006f80   0x08006f80   0x00000028   Data   RO          521    .constdata          at32f413_crm.o
    0x08006fa8   0x08006fa8   0x0001460e   Data   RO         2919    .constdata          AT32F413RC_FOC_LIB.lib(at32f413rc_foc_lib.o)
    0x0801b5b6   0x0801b5b6   0x00000002   PAD
    0x0801b5b8   0x0801b5b8   0x00000020   Data   RO         3154    .constdata          m_wm.l(rredf.o)
    0x0801b5d8   0x0801b5d8   0x00000020   Data   RO         3313    Region$$Table       anon$$obj.o


    Execution Region RW_IRAM1 (Exec base: 0x20000000, Load base: 0x0801b5f8, Size: 0x00001a08, Max: 0x00008000, ABSOLUTE)

    Exec Addr    Load Addr    Size         Type   Attr      Idx    E Section Name        Object

    0x20000000   0x0801b5f8   0x00000004   Data   RW          224    .data               system_at32f413.o
    0x20000004   0x0801b5fc   0x00000001   Data   RW         2007    .data               timer.o
    0x20000005   0x0801b5fd   0x00000001   Data   RW         2077    .data               mpu6500.o
    0x20000006   0x0801b5fe   0x00000044   Data   RW         2134    .data               debug.o
    0x2000004a   0x0801b642   0x00000001   Data   RW         2174    .data               ahrs.o
    0x2000004b   0x0801b643   0x00000001   PAD
    0x2000004c   0x0801b644   0x00000004   Data   RW         2214    .data               led.o
    0x20000050   0x0801b648   0x00000008   Data   RW         2363    .data               key.o
    0x20000058   0x0801b650   0x00000016   Data   RW         2445    .data               app.o
    0x2000006e   0x0801b666   0x00000001   Data   RW         2480    .data               calibration.o
    0x2000006f   0x0801b667   0x00000001   PAD
    0x20000070   0x0801b668   0x0000000e   Data   RW         2541    .data               control.o
    0x2000007e   0x0801b676   0x0000000b   Data   RW         2635    .data               rcdata.o
    0x20000089   0x0801b681   0x00000001   PAD
    0x2000008a   0x0801b682   0x00000004   Data   RW         2730    .data               delay.o
    0x2000008e   0x0801b686   0x00000004   Data   RW         2778    .data               usart.o
    0x20000092   0x0801b68a   0x00000001   Data   RW         2870    .data               ws2812.o
    0x20000093   0x0801b68b   0x00000001   PAD
    0x20000094   0x0801b68c   0x0000004b   Data   RW         2920    .data               AT32F413RC_FOC_LIB.lib(at32f413rc_foc_lib.o)
    0x200000df   0x0801b6d7   0x00000001   PAD
    0x200000e0        -       0x00000014   Zero   RW         2006    .bss                timer.o
    0x200000f4        -       0x00000088   Zero   RW         2133    .bss                debug.o
    0x2000017c        -       0x000000ae   Zero   RW         2173    .bss                ahrs.o
    0x2000022a        -       0x00000800   Zero   RW         2404    .bss                flash.o
    0x20000a2a        -       0x0000012e   Zero   RW         2479    .bss                calibration.o
    0x20000b58        -       0x00000372   Zero   RW         2540    .bss                control.o
    0x20000eca   0x0801b6d7   0x00000002   PAD
    0x20000ecc        -       0x00000018   Zero   RW         2634    .bss                rcdata.o
    0x20000ee4        -       0x00000200   Zero   RW         2777    .bss                usart.o
    0x200010e4        -       0x000001a4   Zero   RW         2869    .bss                ws2812.o
    0x20001288        -       0x00000120   Zero   RW         2918    .bss                AT32F413RC_FOC_LIB.lib(at32f413rc_foc_lib.o)
    0x200013a8        -       0x00000060   Zero   RW         3177    .bss                c_w.l(libspace.o)
    0x20001408        -       0x00000200   Zero   RW          358    HEAP                startup_at32f413.o
    0x20001608        -       0x00000400   Zero   RW          357    STACK               startup_at32f413.o


==============================================================================

Image component sizes


      Code (inc. data)   RO Data    RW Data    ZI Data      Debug   Object Name

       632         56          0          0          0       2215   adc.o
      1256         60          0          1        174       6684   ahrs.o
       504         58          0         22          0       1658   app.o
       546         18          0          0          0       9834   at32f413_adc.o
       106          0          0          0          0        538   at32f413_clock.o
       906        118         40          0          0       9108   at32f413_crm.o
       496         28          0          0          0       6601   at32f413_dma.o
       520         38          0          0          0       5619   at32f413_flash.o
       292          6          0          0          0       4586   at32f413_gpio.o
        26          0          0          0          0       3914   at32f413_int.o
       280         18          0          0          0      32504   at32f413_misc.o
       352          0          0          0          0       4142   at32f413_spi.o
       764          0          0          0          0      10676   at32f413_tmr.o
       246          6          0          0          0       6243   at32f413_usart.o
       816         94          0          1        302       3745   calibration.o
      3680        346          0         14        882      11780   control.o
       296         20          0         68        136       1854   debug.o
       108         12          0          4          0       1188   delay.o
       448         30          0          0          0       2409   encoder.o
       370          4          0          0       2048       3181   flash.o
       188         18          0          0          0        610   gpio_config.o
       456         48          0          8          0       1477   key.o
      1000         30          0          4          0       2325   led.o
        22          0          0          0          0      68747   main.o
       608         42          0          1          0       4356   mpu6500.o
      2292        130          0         11         24       2197   rcdata.o
        64         26        368          0       1536        820   startup_at32f413.o
       352         46         16          4          0       1964   system_at32f413.o
       984         94          0          1         20       4315   timer.o
      1356        166          0          4        512       7860   usart.o
       576         40          0          1        420       2770   ws2812.o

    ----------------------------------------------------------------------
     20566       1552        456        148       6056     225920   Object Totals
         0          0         32          0          0          0   (incl. Generated)
        24          0          0          4          2          0   (incl. Padding)

    ----------------------------------------------------------------------

      Code (inc. data)   RO Data    RW Data    ZI Data      Debug   Library Member Name

      4468        312      83470         75        288       7825   at32f413rc_foc_lib.o
         8          0          0          0          0         68   __main.o
         0          0          0          0          0          0   __rtentry.o
        12          0          0          0          0          0   __rtentry2.o
         6          0          0          0          0          0   __rtentry4.o
        52          8          0          0          0          0   __scatter.o
        26          0          0          0          0          0   __scatter_copy.o
        28          0          0          0          0          0   __scatter_zi.o
        22          0          0          0          0        100   _rserrno.o
        18          0          0          0          0         80   exit.o
         6          0          0          0          0        152   heapauxi.o
         0          0          0          0          0          0   indicate_semi.o
         2          0          0          0          0          0   libinit.o
         6          0          0          0          0          0   libinit2.o
         2          0          0          0          0          0   libshutdown.o
         2          0          0          0          0          0   libshutdown2.o
         8          4          0          0         96         68   libspace.o
         8          4          0          0          0         68   rt_errno_addr_intlibspace.o
        68          0          0          0          0         68   rt_memclr.o
        78          0          0          0          0         80   rt_memclr_w.o
       138          0          0          0          0         68   rt_memcpy_v6.o
       100          0          0          0          0         80   rt_memcpy_w.o
         2          0          0          0          0          0   rtexit.o
        10          0          0          0          0          0   rtexit2.o
        12          4          0          0          0         68   sys_exit.o
        74          0          0          0          0         80   sys_stackheap_outer.o
         2          0          0          0          0         68   use_no_semi.o
        24          0          0          0          0        116   dcmpi.o
       120          4          0          0          0        140   dleqf.o
       156          4          0          0          0        140   dnaninf.o
        12          0          0          0          0        116   dretinf.o
       108          0          0          0          0        128   drleqf.o
        86          4          0          0          0        132   f2d.o
       140          4          0          0          0        132   fnaninf.o
        10          0          0          0          0        116   fpinit.o
         0          0          0          0          0          0   usenofp.o
       592         90          0          0          0        184   atan2f.o
       336         56          0          0          0        136   cosf.o
        20          0          0          0          0        124   fabs.o
        38          0          0          0          0        116   fpclassifyf.o
        44         12          0          0          0        464   funder.o
       340         24         32          0          0        160   rredf.o
       400         56          0          0          0        212   sinf.o

    ----------------------------------------------------------------------
      7594        586      83504         76        384      11289   Library Totals
        10          0          2          1          0          0   (incl. Padding)

    ----------------------------------------------------------------------

      Code (inc. data)   RO Data    RW Data    ZI Data      Debug   Library Name

      4468        312      83470         75        288       7825   AT32F413RC_FOC_LIB.lib
       690         20          0          0         96       1048   c_w.l
       656         16          0          0          0       1020   fz_wm.l
      1770        238         32          0          0       1396   m_wm.l

    ----------------------------------------------------------------------
      7594        586      83504         76        384      11289   Library Totals

    ----------------------------------------------------------------------

==============================================================================


      Code (inc. data)   RO Data    RW Data    ZI Data      Debug   

     28160       2138      83960        224       6440     219141   Grand Totals
     28160       2138      83960        224       6440     219141   ELF Image Totals
     28160       2138      83960        224          0          0   ROM Totals

==============================================================================

    Total RO  Size (Code + RO Data)               112120 ( 109.49kB)
    Total RW  Size (RW Data + ZI Data)              6664 (   6.51kB)
    Total ROM Size (Code + RO Data + RW Data)     112344 ( 109.71kB)

==============================================================================

